:1000000002273A008F828E83E0540100000070F8CE
:100010002278FFE4F6D8FD022798EC4D6011E849FC
:100020007017ED33EC3304600DE4FCFFFEFD22E9B4
:1000300033E8330470F80202E31202AE5804600998
:10004000E4CC248150062850090202ED2840030226
:1000500002EAC0E0EB4A7044B98006D0E0FB02023D
:10006000D9EF4E701CBD8008EBFFEAFEE9FD80EB86
:10007000E98DF0A4FEE5F0020103E9CDF9EAFEEB1B
:10008000FFEF89F0A4FCE5F0CE89F0A42EFFE43563
:10009000F0CD89F0A42DFEE435F08067EF4E7005B9
:1000A000BD80D780C3EF8BF0A4ACF0EE8BF0A42C16
:1000B000FCE435F0F8EF8AF0A42CE5F038FCE433EA
:1000C000CB8DF0A42CFCE5F03BF8EE8AF0A42CFCE0
:1000D000E5F038F8E433CF89F0A42CFCE5F038CF14
:1000E0003400CE89F0A42FFFE5F03EFEE433C98D45
:1000F000F0A42EFEE5F039CD8AF0A42FFFE5F03E06
:10010000FEE43DFD33D0E0FB50070BBB000F0202C5
:10011000EDEC2CFCEF33FFEE33FEED33FD0202C5B8
:100120000202EDEC5D046005E8590470030202E38D
:100130001202AE580460F6EC4860F2EC7004FDFE6A
:10014000FF22C860DB2481C85009C39860025006B2
:100150000202EA9850CAF582E9294B4A7005AB823F
:100160000202D975F0007C1A7880C3EF9BEE9AEDFD
:1001700099400DC3EF9BFFEE9AFEED99FDE842F02A
:10018000DC23ACF0D0E0FFD0E0FED0E0FDAB82207D
:10019000E7101BEB60BAEC2CFCEF33FFEE33FEED07
:1001A00033FD0202C5E803F830E705C0F075F00042
:1001B000EF2FFFEE33FEED33FD40B830E7C280AAEB
:1001C00074F8CC6480CCC86480C8F58204604FC3E6
:1001D000EB9FF5F0EA9E42F0E99D42F0E89C45F085
:1001E000603C501DE5825FFFE582D313CB5BCBF40F
:1001F0002B5582FB50280ABA002409B90020088038
:100200001DE5825BFBE582D313CF5FCFF4C3132FD1
:100210005582FF50090EBE00050DBD00010CC3EB59
:100220009FF5F0EA9E42F0E99D42F0E89C45F060BF
:1002300007CC4820E701B3EC2275F020800E75F062
:1002400010800575F0087D007E007F003392D53068
:10025000D5031204C1EC334010EF33FFEE33FEED53
:1002600033FDEC33FCD5F0ED22E5F0247EA2D5136E
:10027000CC92E7CDCEFF22EDD2E7CD33EC3392D551
:1002800024814006E4FFFEFDFC22FCE4CFCECDCC71
:1002900024E0501174FF80EDC3CC13CCCD13CDCE30
:1002A00013CECF13CF0470F030D5DE0204C1E9D2F3
:1002B000E7C933E833F892D5EDD2E7CD33EC33FC20
:1002C0005002B2D522EC30E7100FBF000C0EBE007A
:1002D000080DBD00040BEB6014A2D5EB13FCED92EE
:1002E000E7FD2274FFFCFDFEFF22E480F8A2D57436
:1002F000FF13FC7D80E480EFBB010689828A83E0E6
:10030000225002E722BBFE02E32289828A83E49321
:1003100022BB010689828A83F0225002F722BBFEAB
:1003200001F322BC000BBE0029EF8DF084FFADF07D
:1003300022E4CCF875F008EF2FFFEE33FEEC33FC2F
:10034000EE9DEC984005FCEE9DFE0FD5F0E9E4CE65
:10035000FD22EDF8F5F0EE8420D21CFEADF075F034
:1003600008EF2FFFED33FD4007985006D5F0F2223D
:10037000C398FD0FD5F0EA22C5F0F8A3E028F0C538
:10038000F0F8E582158270021583E038F022A3F8B8
:10039000E0C5F025F0F0E582158270021583E0C813
:1003A00038F0E822E88FF0A4CC8BF0A42CFCE98E86
:1003B000F0A42CFC8AF0EDA42CFCEA8EF0A4CDA8CD
:1003C000F08BF0A42DCC3825F0FDE98FF0A42CCDD6
:1003D00035F0FCEB8EF0A4FEA9F0EB8FF0A4CFC5B6
:1003E000F02ECD39FEE43CFCEAA42DCE35F0FDE440
:1003F0003CFC2275F008758200EF2FFFEE33FECD36
:1004000033CDCC33CCC58233C5829BED9AEC99E5D4
:100410008298400CF582EE9BFEED9AFDEC99FC0F64
:10042000D5F0D6E4CEFBE4CDFAE4CCF9A88222B82C
:1004300000C1B90059BA002DEC8BF084CFCECDFCB1
:10044000E5F0CBF97818EF2FFFEE33FEED33FDEC3E
:1004500033FCEB33FB10D703994004EB99FB0FD827
:10046000E5E4F9FA227818EF2FFFEE33FEED33FDC5
:10047000EC33FCC933C910D7059BE99A4007EC9BC4
:10048000FCE99AF90FD8E0E4C9FAE4CCFB2275F054
:1004900010EF2FFFEE33FEED33FDCC33CCC833C865
:1004A00010D7079BEC9AE899400AED9BFDEC9AFC6B
:1004B000E899F80FD5F0DAE4CDFBE4CCFAE4C8F91A
:1004C00022C3E49FFFE49EFEE49DFDE49CFC22EB3E
:1004D0009FF5F0EA9E42F0E99D42F0E89C45F0224B
:1004E000E8600FECC313FCED13FDEE13FEEF13FFFA
:1004F000D8F122E8600FEFC333FFEE33FEED33FD9A
:10050000EC33FCD8F122BB010789828A830206B151
:100510005005E9F80206A5BBFE05E9F80206BD890B
:10052000828A830206C9BB010789828A8302054049
:100530005005E9F80206D9BBFE05E9F80206E522F6
:10054000ECF0A3EDF0A3EEF0A3EFF022D083D08285
:10055000F8E4937012740193700DA3A393F87401DF
:1005600093F5828883E4737402936860EFA3A3A376
:1005700080DFE50C2582F582E50B3583F583B50B2D
:100580000485820C2210AF0685820CF50B22858231
:100590000CF50BD2AF22EC8EF0A4CCC5F0CCCDF88C
:1005A000EFA4CEC5F02DFDE43CFCE8A42EC8C5F0B8
:1005B0003DFDE43CFCEFA4FFE5F028FEE43DFDE456
:1005C0003CFC22E709F608DFFA8046E709F208DF7B
:1005D000FA803E88828C83E709F0A3DFFA8032E359
:1005E00009F608DFFA806EE309F208DFFA80668810
:1005F000828C83E309F0A3DFFA805A89828A83E040
:10060000A3F608DFFA804E89828A83E0A3F208DF2E
:10061000FA804280D280FA80C680D4805580F280F1
:1006200029801080A680EA809A80A880DA80E28003
:10063000CA802988848C8589828A83E493A305866D
:10064000F0A30586DFF5DEF3800B89828A83E493CD
:10065000A3F608DFF9ECFAA9F0EDFB2288848C857B
:1006600089828A83E0A30586F0A30586DFF6DEF49F
:1006700080E389828A83E493A3F208DFF980D68835
:10068000F0EF60010E4E60CD88F0ED2402B404005E
:1006900050C3F582EB2402B4040050B923234582F1
:1006A0002390061373E6FC08E6FD08E6FE08E6FF65
:1006B00022E0FCA3E0FDA3E0FEA3E0FF22E2FC08B1
:1006C000E2FD08E2FE08E2FF22E493FC740193FDE0
:1006D000740293FE740393FF22ECF608EDF608EE25
:1006E000F608EFF622ECF208EDF208EEF208EFF26F
:1006F000229001387401F0A37401F0A37428F090E3
:1007000001F1E07003020D52122E959001F2EFF00C
:10071000B4AA0F9001EDE0C394025006E004F00289
:1007200008029001EDE0FF64026004EFB4032A9038
:1007300001F2E0FF900138E0FBA3E0FAA3E0F990BA
:1007400001ECE0FE04F0E92EF9E43AFAEF120311AD
:100750009001EDE004F00208029001EDE0FF640476
:10076000703F9001F2E0FE900138E0FBA3E0FAA3B5
:10077000E0F99001ECE0FD04F0E92DF9E43AFAEE3D
:100780001203119001EDE004F0EE700EA304F0E40A
:100790009001EDF09001ECF080689001EFEEF080B8
:1007A00061EFD39404404A9001EDE014D3941050CB
:1007B000409001F2E0FF900138E0FBA3E0FAA3E0F3
:1007C000F99001ECE0FE04F0E92EF9E43AFAEF12B8
:1007D00003119001EDE004F09001EFE014F0E070FF
:1007E000219001EE04F0E49001EDF09001ECF08036
:1007F00011E49001EEF09001EDF09001EFF0900126
:10080000ECF09001EEE07003020D52900138E0FB35
:10081000A3E0FAA3E0F91202F812054C0CB80F0895
:100820004A50088F5109205209B1530A42540B8D86
:10083000550AD3560C1C900C6F910B48930B15B0B6
:100840000BE7C00CF0F000000D347FAA12378C7F4C
:10085000AA12378CE4FF12378C900138E0FBA3E03A
:10086000FAA3E02401F9E43AFA1202F8FF12378CF5
:10087000E4FF12378C900138E0FBA3E0FAA3E024F8
:1008800003F9E43AFA1202F89000B3F0020D4D7F3A
:10089000AA12378C7FAA12378CE4FF12378C900192
:1008A00038E0FBA3E0FAA3E02401F9E43AFA1202EB
:1008B000F8FF12378CE4FF12378C900138E0FBA36D
:1008C000E0FAA3E02403F9E43AFA1202F8FF9001F7
:1008D00006F0FD900138E0A3E0FAA3E02404F9E477
:1008E0003AFA1202F8FEED25E024B5F582E4340070
:1008F000F583EEF0A3E4F0900138E0FBA3E0FAA367
:10090000E02405F9E43AFA1202F8FFED25E024B5F7
:10091000F582E43400F583E48FF0120378020D4D84
:100920007FAA12378C7FAA12378CE4FF12378C9083
:100930000138E0FBA3E0FAA3E02401F9E43AFA125B
:1009400002F8FF12378CE4FF12378C900138E0FB7D
:10095000A3E0FAA3E02403F9E43AFA1202F8FF90C4
:100960000106F0FD900138E0A3E0FAA3E02404F9C9
:10097000E43AFA1202F8FEED25E024C9F582E434E7
:1009800000F583EEF0A3E4F0900138E0FBA3E0FA79
:10099000A3E02405F9E43AFA1202F8FFED25E02479
:1009A000C9F582E43400F583E48FF0120378020D78
:1009B0004D7FAA12378C7FAA12378CE4FF12378C36
:1009C000900138E0FBA3E0FAA3E02401F9E43AFA4D
:1009D0001202F8FF12378CE4FF12378C900138E0D6
:1009E000FBA3E0FAA3E02403F9E43AFA1202F8FFC9
:1009F000900106F0FD900138E0A3E0FAA3E02404A2
:100A0000F9E43AFA1202F8FEED25E024DDF582E47D
:100A10003400F583EEF0A3E4F0900138E0FBA3E0AE
:100A2000FAA3E02405F9E43AFA1202F8FFED25E012
:100A300024DDF582E43400F583E48FF012037802BC
:100A40000D4D7FAA12378C7FAA12378CE4FF123724
:100A50008C900138E0FBA3E0FAA3E02401F9E43A2A
:100A6000FA1202F8FF12378CE4FF12378C9001382B
:100A7000E0FBA3E0FAA3E02403F9E43AFA1202F857
:100A8000FF900106F0FD900138E0A3E0FAA3E02416
:100A900004F9E43AFA1202F8FEED25E024F1F582B9
:100AA000E43400F583EEF0A3E4F0900138E0FBA31A
:100AB000E0FAA3E02405F9E43AFA1202F8FFED2582
:100AC000E024F1F582E43400F583E48FF01203783A
:100AD000020D4D7FAA12378C7FAA12378CE4FF12C9
:100AE000378C900138E0FBA3E0FAA3E02401F9E49D
:100AF0003AFA1202F8FF12378CE4FF12378C900199
:100B000038E0FBA3E0FAA3E02403F9E43AFA120286
:100B1000F8900107F07FAA12378C7FAA12378CE475
:100B2000FF12378C900138E0FBA3E0FAA3E0240128
:100B3000F9E43AFA1202F8FF12378C7F0112378C6F
:100B4000E4FF12378C020D4D7FAA12378C7FAA1258
:100B5000378CE4FF12378C900138E0FBA3E0FAA356
:100B6000E02401F9E43AFA1202F8FF12378CE4FFAC
:100B700012378C900138E0FBA3E0FAA3E02403F9DC
:100B8000E43AFA1202F890009EF0020D4D7FAA128C
:100B9000378C7FAA12378CE4FF12378C900138E033
:100BA000FBA3E0FAA3E02401F9E43AFA1202F8FF09
:100BB00012378CE4FF12378C900138E0FBA3E0FA87
:100BC000A3E02403F9E43AFA1202F89000B4F0D357
:100BD00094034003020D4DE0FFC394015003020D46
:100BE0004D123128020D4D7FAA12378C7FAA123781
:100BF0008CE4FF12378C900138E0FBA3E0FAA3E00D
:100C00002401F9E43AFA1202F8FF12378C7F02123B
:100C1000378CE4FF12378CE4FF12378C7FAA12372F
:100C20008C7FAA12378CE4FF12378C900138E0FBDE
:100C3000A3E0FAA3E02401F9E43AFA1202F8FF1261
:100C4000378CE4FF12378C9000877401F0E4900138
:100C500005F09000B5E0FFA3E090008CCFF0A3EF8B
:100C6000F0E4900093F0A3F09001FCF0020D4D7FB2
:100C7000AA12378C7FAA12378CE4FF12378C9001AE
:100C800038E0FBA3E0FAA3E02401F9E43AFA120207
:100C9000F8FF12378CE4FF12378CE4900087F09055
:100CA00000B5E0FFA3E090008CCFF0A3EFF0E4905C
:100CB0000093F0A3F0020D4D7FAA12378C7FAA1289
:100CC000378CE4FF12378C900138E0FBA3E0FAA3E5
:100CD000E02401F9E43AFA1202F8FF12378CE4FF3B
:100CE00012378C90008E7401F0E4900087F0805DE4
:100CF0007FAA12378C7FAA12378CE4FF12378C90B0
:100D00000138E0FBA3E0FAA3E02401F9E43AFA1287
:100D100002F8FF12378CE4FF12378CE490008EF05B
:100D2000900087F090008CF0A37496F090019D7471
:100D300002F080197FAA12378C7FAA12378C7FFFAE
:100D400012378C7FFF12378CE4FF12378CE490014E
:100D5000EEF022900195E0701F123722EF70319073
:100D600001A4E004F0E0D394024025E4F09001A750
:100D700004F0900195F08018123722EF6012900174
:100D8000A4E004F0E0D394024006E4F0900195F072
:100D9000900196E0701F123604EF70319001A5E0CB
:100DA00004F0E0D394024025E4F09001A804F09010
:100DB0000196F08018123604EF60129001A5E0044D
:100DC000F0E0D394024006E4F0900196F01237D898
:100DD000E4FF1233CA122CF7EEA2E713FEEF13FF63
:100DE0009001A1EEF0A3EFF0C39405EE648094802F
:100DF00050099001A1E4F0A37405F0D39001A2E0A2
:100E000094CD9001A1E0648094804006E4F0A37446
:100E1000CDF0900194E004F09001A7E06012E4F0BE
:100E200090019FE0FF6401606490019DEFF0805DA0
:100E30009001A8E06012E4F09001A0E0FF6401607E
:100E40004C90019DEFF08045900198E0FF9001A14A
:100E5000E0FCA3E0FD6F7001EC6015900198EDF0EF
:100E60009001A6E0FF6401602490019DEFF0801DD9
:100E70009001A3E0FF900194E0C39F4010E4F09044
:100E8000019EE0FF6401600590019DEFF090019DDF
:100E9000E024FEB411004003021338900EA975F04F
:100EA00003A4C58325F0C58373020EDC020F19026B
:100EB0000F5A020FF602102B02105B02109C021058
:100EC000AD0210E202111202117A02118F0211C456
:100ED0000211F40212C50212E502131AE49000870F
:100EE000F0FDFF1230707BFF7A237904122F26E485
:100EF000FD7F011230707BFF7A237915122F26E4D3
:100F000090019DF090019F7405F0A37403F090018F
:100F1000A67401F090019EF0229000877401F0E425
:100F2000FDFF1230707BFF7A237926122F26E4FD15
:100F30007F011230707BFF7A237937122F269001C0
:100F40009D7404F0E490019FF0A37402F09001A35B
:100F50007408F090019E7404F0229001A2E024191C
:100F6000FF9001A1E03400FE90008CF0A3EFF0FBB5
:100F7000AA06E4F9F87FA07E867D01FC122F6AC0E4
:100F800004C005C006C0079000B3E0FD7C007E648D
:100F90007F00120323AB07AA06E4F9F8D007D006B6
:100FA000D005D004122F6A90008BEFF07D04E4FF8F
:100FB0001230707BFF7A237948122F267D04E4FFDC
:100FC00012307090008CE0FEA3E0FFE4FCFD1228DC
:100FD000E97D047F011230707BFF7A237948122F5C
:100FE000267D047F0112307090008BE0FF7E00E4CC
:100FF000FCFD1228E922E4FDFF1230707BFF7A230A
:10100000794E122F26E4FD7F011230707BFF7A2388
:10101000795F122F26E490019DF090019F7409F0F2
:10102000A37406F09001A67401F022E4FDFF1230D3
:10103000707BFF7A237970122F26E4FD7F01123036
:10104000707BFF7A237981122F2690019D7407F01F
:101050009001A004F09001A614F0227D04E4FF1298
:101060003070D39001A2E094649001A1E064809478
:101070008040137BFF7A237992122F269001A9E4F6
:10108000F0A304F080107BFF7A23799A122F26E4D4
:101090009001A9F0A3F0E490019DF0229001A9E055
:1010A000A3E090009EF090019D7409F022E4FDFF02
:1010B0001230707BFF7A2379A2122F26E4FD7F0184
:1010C0001230707BFF7A23795F122F26E490019D06
:1010D000F090019F740DF0A3740AF09001A67401C2
:1010E000F022E4FDFF1230707BFF7A2379B3122FD8
:1010F00026E4FD7F011230707BFF7A237981122F65
:101100002690019D740BF09001A004F09001A614AC
:10111000F0227D07E4FF123070C39001A2E09442F8
:101120009001A1E06480948050137BFF7A2379C4FE
:10113000122F269001A9E4F0A304F08037D3900188
:10114000A2E094859001A1E06480948040147BFF2C
:101150007A2379C9122F269001A9E4F0A37403F031
:1011600080127BFF7A2379CE122F269001A9E4F01A
:10117000A37402F0E490019DF0229001A9E0A3E0A5
:10118000FF9000B4F012312890019D740DF022E41C
:10119000FDFF1230707BFF7A2379D3122F26E4FDF6
:1011A0007F011230707BFF7A23795F122F26E49043
:1011B000019DF090019F7411F0A3740EF09001A6B0
:1011C0007401F022E4FDFF1230707BFF7A2379E492
:1011D000122F26E4FD7F011230707BFF7A23798184
:1011E000122F2690019D740FF09001A004F0900141
:1011F000A614F0227D07E4FF123070C39001A2E034
:1012000094289001A1E064809480501B7BFF7A2396
:1012100079F5122F269001A9E4F0A37480F09000D4
:10122000847401F00212BFC39001A2E094509001B7
:10123000A1E064809480501A7BFF7A2379FA122F00
:10124000269001A9E4F0A37420F09000847408F0C3
:10125000806DC39001A2E094789001A1E064809435
:1012600080501A7BFF7A2379FF122F269001A9E480
:10127000F0A37408F09000847420F08042C39001C1
:10128000A2E094A09001A1E064809480501A7BFFBA
:101290007A247904122F269001A9E4F0A37404F0B3
:1012A0009000847440F080177BFF7A247909122F14
:1012B000269001A9E4F0A304F09000847481F0E486
:1012C00090019DF0229001A9E0A3E09000B3F0907E
:1012D000008CE4F0A37496F0FF7E0012373090018A
:1012E0009D7411F022E4FDFF1230707BFF7A2479A7
:1012F0000E122F26E4FD7F011230707BFF7A2479D5
:101300001F122F26E490019DF090019F7402F0A31C
:101310007412F09001A67401F02290009E7401F006
:101320009000B37410F0A3F07F06122AB97F061262
:101330002B3690019D7402F02290010AEFF0E490A8
:1013400001C2F090010AE0640160030213EB904EC9
:10135000007434F0904E027404F0A37406F0A3E419
:10136000F0A3F0A37413F0904E08E4F0A3F0A3F000
:10137000904E1404F09058847414F0A37405F0A3F4
:101380007416F0A3E4F090588A7444F0A37448F003
:10139000A37401F090588E04F0A37422F0A3742873
:1013A000F0A374EBF07F521230AF9058947458F061
:1013B000A3E4F090589A7405F0A37401F0A3E4F04C
:1013C000A3740AF0E47F66FEFDFC9001B8120540AC
:1013D0007D017F0D7E001220A47D017F397E0012E9
:1013E00021D57C387D9A7F1D122C9090010AE064F3
:1013F000026003021494904E007438F0904E027410
:1014000004F0A37407F0A3E4F0A3F0A3743FF090FA
:101410004E08E4F0A3F0A3F0904E1404F09058842A
:101420007450F0A37427F0A3742CF0A3E4F0905848
:101430008A7455F0A3745AF0A37405F090588E7412
:1014400001F0A37411F0A37419F0A37497F07F4412
:101450001230AF9058947458F0A3E4F090589A74F6
:1014600005F0A37401F0A3E4F0A3740AF0E4FF7E96
:101470007DFDFC9001B81205407D017F127E0012B7
:1014800020A47D017F4A7E001221D57C387D9B7F80
:101490001D122C9090010AE06403600302153D9038
:1014A0004E007438F0904E027404F0A37407F0A359
:1014B000E4F0A3F0A3743FF0904E08E4F0A3F0A38F
:1014C000F0904E1404F09058847450F0A37427F0F8
:1014D000A3742CF0A3E4F090588A7455F0A3745AC6
:1014E000F0A37405F090588E7401F0A37411F0A36A
:1014F0007419F0A37497F07F441230AF905894742D
:1015000058F0A3E4F090589A7405F0A37401F0A386
:10151000E4F0A3740AF0E4FF7E7DFDFC9001B812B4
:1015200005407D017F127E001220A47D017F4A7E4E
:10153000001221D57C387D9C7F1D122C9090010AD1
:10154000E0640460030215E6904E007438F0904E9B
:10155000027404F0A37407F0A3E4F0A3F0A3743FB3
:10156000F0904E08E4F0A3F0A3F0904E1404F09035
:1015700058847450F0A37427F0A3742CF0A3E4F003
:1015800090588A7455F0A3745AF0A37405F09058DB
:101590008E7401F0A37411F0A37419F0A37497F082
:1015A0007F441230AF9058947458F0A3E4F09058F0
:1015B0009A7405F0A37401F0A3E4F0A3740AF0E4B4
:1015C000FF7E7DFDFC9001B81205407D017F127EFB
:1015D000001220A47D017F4A7E001221D57C387D37
:1015E0009D7F1D122C9022C0E0C0F0C083C082C03D
:1015F00085C084C086758600C093759300C0D07581
:10160000D000C000C001C002C003C004C005C006B5
:10161000C00790009CE070030217AE1228279000CC
:101620008EE0640160030217AE900094E004F07055
:1016300006900093E004F09001FCE0600302174D77
:10164000900096E004F07006900095E004F09000A1
:1016500088E0604D900097E06030900091E0FEA33C
:10166000E0FFC390008DE09FFF90008CE09EFEF0B5
:10167000A3EFF0C39402EE94004003021721900000
:101680008CE4F0A37402F0021721900091E0FEA315
:10169000E0FF90008DE02FF090008CE03EF002170C
:1016A0002190008FE0FEA3E0FFC3900096E09F90A2
:1016B0000095E09E406B900097E06030900105E05F
:1016C00025E024C9F582E43400F583E0FEA3E0FFC1
:1016D00090008CE06E7003A3E06F603E90008DE0A0
:1016E00024FFF090008CE034FFF0802E900105E0A4
:1016F00025E024C9F582E43400F583E0FEA3E0FF91
:1017000090008CE06E7003A3E06F600E90008DE09F
:1017100004F0700690008CE004F0900095E4F0A3D3
:10172000F0900105E025E024DDF582E43400F58346
:10173000E0FEA3E0FFC3900094E09F900093E09E42
:10174000406CE4F0A3F09001FC04F080619001058E
:10175000E025E024F1F582E43400F583E0FEA3E027
:10176000FFC3900094E09F900093E09E4040900162
:1017700005E004F0900093E4F0A3F09001FCF090F9
:101780000105E0FF25E024B5F582E43400F583E0AF
:10179000FDA3E090008CCDF0A3EDF0900107E0FEFA
:1017A000EFC39E4009900087E4F0900105F01238E5
:1017B00076D007D006D005D004D003D002D001D017
:1017C00000D0D0D093D086D084D085D082D083D0A2
:1017D000F0D0E03290010BECF0A3EDF0A3EAF0A31F
:1017E000EBF0900110E0FED394005003021975EE67
:1017F000D394044003021975EF24FC601524FD60A6
:101800003C14606224FE700302188F2409600302F6
:1018100018B890010FE0D3940F40117B0C7A017936
:1018200018123798900111EFF00218BD7B0C7A0165
:10183000791C123798900111EFF00218BD90010F3A
:10184000E0D3940F40107B0C7A01791912379890ED
:101850000111EFF080677B0C7A01791D12379890A7
:101860000111EFF0805790010FE0D3940F40107BEF
:101870000C7A01791A123798900111EFF0803E7BB3
:101880000C7A01791E123798900111EFF0802E909A
:10189000010FE0D3940F40107B0C7A01791B1237B3
:1018A00098900111EFF080157B0C7A01791F1237A7
:1018B00098900111EFF08005E4900111F090011172
:1018C000E0FF3395E0FEFDFCE47B20FAF9F812031B
:1018D000A4A804A905AA06AB0790010BE0FEA3E0AB
:1018E000FFE4FCFDEB2FFFEA3EFEED39FDEC38FC9A
:1018F000AB07AA06A905F8A3E0FEA3E0FFE4FCFD00
:101900001203A4E4FB7A80F9F812042FAD07AC06A9
:1019100090010FE0C3940E502FE0FBC3740E9BFFA9
:10192000EDA807088005CEC313CE13D8F9FDAC0689
:10193000EB04FF900110E075F003A424AAF582E403
:101940003401F583EFF08014900110E075F003A4EA
:1019500024AAF582E43401F583740FF0AF059001F9
:1019600010E075F003A424A8F582E43401F583ECBB
:10197000F0A3EFF0227F001234F32242008C009695
:1019800041009C0041008E0041008B004200950008
:101990000042008F00004200930000410088004296
:1019A00000910000420089000060800000FFFFFFFE
:1019B000FFFFFEFEFEFDFDFDFCFCFBFBFAF9F9F866
:1019C000F7F7F6F5F4F3F2F1F0EFEEEDECEAE9E813
:1019D000E7E5E4E2E1DFDEDCDBD9D7D6D4D2D0CF55
:1019E000CDCBC9C7C5C3C1BFBDBBB9B7B4B2B0AE1B
:1019F000ABA9A7A4A29F9D9A989593908E8B888659
:101A000083807E7B787573706D6A6764625F5C59F2
:101A10005653504D4A4744413E3B3835322F2C29CE
:101A200025221F1C191613100D09060300460081FC
:101A30000000010000004101F1004101F2004101FC
:101A4000F0004101EC004101ED004101EE004101D7
:101A5000EF004201A1000041019D0241019F0041B0
:101A600001A0004101A60041019E004101950041F5
:101A700001A7004101A400410196004101A80041D5
:101A800001A5004101B7004101C2004101BD004173
:101A900001C3004101BC014101FA004101FB0041C9
:101AA00001FC004101F9004101F8004101FD004144
:101AB00001FE004101FF004102000041020100411E
:101AC00001C7004101C9004101CC004101C50041ED
:101AD00001CB004101C8004101CA014101C60041DA
:101AE000020200410203004401E302DC6C004401F5
:101AF000DE0000BB804101E2304401E85DC000002F
:101B00004301F300000041020400007B007A4679A3
:101B1000E8123798EF4405FD7B007A4679E81237E2
:101B2000A4E4F50AE50AC3940A502FE50A75F00506
:101B3000A424A4F582E43438AF82F5088F09F58334
:101B4000E493FB740193FA740293F9740393FC74A5
:101B50000493FD123450050A80CA7B087A0079008C
:101B60001232C7905883740AF07B007A58794C7D02
:101B7000037C021236DB7B007A58794E7403FDFC3D
:101B80001236DB7B017A507903123798EF4402FD5D
:101B90007B017A5079031237A47B017A50791312B2
:101BA0003798EF4402FD7B017A5079131237A490E5
:101BB00043A0E04440F09043C2E04410F07B087A38
:101BC00008796C900112E4F0A37451F0A3E4F07F63
:101BD0000AFE1231FF7B087A087978900112E4F04E
:101BE000A37451F0A37412F07F087E001231FF7BC2
:101BF000087A087980900112E4F0A37451F0A3747C
:101C000022F07F087E001231FF7B087A08798890E5
:101C10000112E4F0A37451F0A37432F07F087E0047
:101C20001231FF7B087A087990C001795290011235
:101C3000E4F0A37451F0A304F0D0017F087E0012F9
:101C400031FF9044F47401F0904322E04408F09096
:101C500046ECE0C394055006904689743AF09048EB
:101C60000074C0F0121E0C122BB37B007A4379A0D3
:101C7000C003C002900112EBF0A3EAF0A374B0F02D
:101C8000D002D0037F0E7E001231FF9043B0E054AB
:101C9000FDF022900105E0FF25E024B5F582E43453
:101CA00000F583E0FDA3E0900098CDF0A3EDF0EF08
:101CB00025E024C9F582E43400F583E0FEA3E0FFCB
:101CC00090009AEEF0A3EFF0900098E0FCA3E0FD06
:101CD000D39FEC9E5003021D679000977401F09013
:101CE000009AE0FEA3E0FFED9FFDEC9EFC90010555
:101CF000E025E024DDF582E43400F583E0FEA3E096
:101D0000FFC39DEE9C402590009AE0FCA3E0FD906F
:101D10000099E09DFD900098E09CFC120323900048
:101D20008FEEF0A3EFF0E4900088F02290009AE0AC
:101D3000FEA3E0FFC3900099E09FFF900098E09E13
:101D4000FE900105E025E024DDF582E43400F58312
:101D5000E0FCA3E0FD120323900091EEF0A3EFF06E
:101D60009000887401F02290009AE0FEA3E0FF90BA
:101D70000098E0FCA3E0FDC39FEC9E4003021E0B15
:101D8000E4900097F0C390009BE09DFD90009AE0E6
:101D90009CFC900105E025E024DDF582E43400F5AB
:101DA00083E0FEA3E0FFC39DEE9C4025900098E0F9
:101DB000FCA3E0FD90009BE09DFD90009AE09CFC60
:101DC00012032390008FEEF0A3EFF0E4900088F070
:101DD00022900098E0FEA3E0FFC390009BE09FFFED
:101DE00090009AE09EFE900105E025E024DDF5825A
:101DF000E43400F583E0FCA3E0FD1203239000919E
:101E0000EEF0A3EFF09000887401F0227B007A409E
:101E10007980E4FDFC1236DB9040827458F07B0040
:101E20007A407984E4FDFC1236DB9040867450F0F1
:101E30007B007A4079887DDF7C011236DB90408A16
:101E4000741CF07B007A40798C7D707C021236DB4A
:101E500090408E7418F07B087A087998900112E40B
:101E6000F0A37441F0A3E4F07F04FE1231FF90432D
:101E7000007402F09040007408F09042007403F087
:101E80007B0C7A0179081237989046A1EFF07B001D
:101E90007A4279227D107C001236DB7B007A42790F
:101EA000207D517C121236DBE490010CF07F19FE8C
:101EB000FDFC900108120540900108E0A3E0A3E0BA
:101EC000FEA3E0D39400EE9400404AA3E0FF640335
:101ED0006043904225E05401FEEF25E04E5403900C
:101EE000010CF0E47FE07E01FDFC122E0090010861
:101EF000E0FCA3E0FDA3E0FEA3E0FF74FFEF24FFFE
:101F0000FFEE34FFFEED34FFFDEC34FFFC900108E2
:101F100012054080A3900108E0A3E0A3E0FEA3E047
:101F20004E70057F031238977B007A4079047D005C
:101F30007C011236DB9040047407F0904006E4F018
:101F40009040087448F0904004E4F090400174021E
:101F5000F090400B7404F09043A2E0440FF09043E3
:101F6000A1E04401F09043A0E04480F022E490011D
:101F700008F0A3F09000B37410F0E4FFEFC3940AEC
:101F80005043EF25E024B5F582E43400F583E4F016
:101F9000A3F0EF25E024C9F582E43400F583E4F0F2
:101FA000A3F0EF25E024DDF582E43400F583E4F0CE
:101FB000A3F0EF25E024F1F582E43400F583E4F0AA
:101FC000A3F00F80B7E4900105F01235DE1235F171
:101FD0007FFF1238347FFF1238581235B81235CBD4
:101FE0007F06122AB97F06122B3612355912356C2C
:101FF0001234691234819044C07401F012362A12EE
:10200000361790008CE0FEA3E07807C333CE33CEC2
:10201000D8F9FF12373012359212357FE4FF1238AB
:102020002290009E7401F0D2AF9044F474FDF0123F
:1020300035A512343790019D7402F090019F14F081
:102040009001A0F09001A6F090019EF090008CE02D
:10205000FEA3E0FF4E600312373090008EE0640173
:102060006021900089E475F00112038EFEC3E5F053
:1020700094A0EE940F400FE4900089F0A3F0120DAD
:10208000538003121C93900087E0600D7F0112388B
:102090002290009C7401F080B3E490009CF0122F19
:1020A000F080A92290010BEEF0A3EFF0A3EDF01267
:1020B00037F890010FEFF01237CE900110EEF0A339
:1020C000EFF090010BE0FCA3E0FD6F7002EC6E708E
:1020D000030221D49043A2E0540290010EF0A3E049
:1020E000703BA3E0FEA3E0FF4E6004ED4C702EEFCA
:1020F0004E70117B027A4079841236DD904086E082
:1021000054BFF022904086E04440F07B027A407950
:102110008490010BE0FCA3E0FD1236DD2290010E5D
:10212000E06054904001E4F09040107402F0904060
:1021300014E4F0904008E0547FF0904086E05408AA
:10214000600A90010BE07002A3E0702B7B027A40E2
:102150007902900110E0FCA3E0FD1236DD90400111
:102160007407F0904001E0540170F89043A2E054ED
:10217000FDF0904001E4F09043A2E05402602F7B18
:10218000027A40790290010BE0FCA3E0FD1236DDFB
:1021900090010DE060047F0280027F00EF44019017
:1021A0004001F0904001E05401602980F6227B025A
:1021B0007A40798490010BE0FCA3E0FD1236DD90BB
:1021C00043A2C083C082E0FF90010EE0FEEF4ED03C
:1021D00082D083F02290010BEEF0A3EFF0A3EDF09C
:1021E0001237F090010FEFF01237C4900110EEF0AB
:1021F000A3EFF090010BE0FCA3E0FD6F7002EC6E2A
:1022000070030223039043A1E0540190010EF0A358
:10221000E0703AA3E0FEA3E0FF4E6004ED4C702DA9
:10222000EF4E70107B027A41F91236DD904102E0E8
:1022300054BFF022904102E04440F07B027A4179A1
:102240000090010BE0FCA3E0FD1236DD2290010EB0
:10225000E06053904001E4F090401404F09040108E
:10226000E4F0904008E0547FF0904102E0540860B0
:102270000A90010BE07002A3E0702B7B027A407998
:1022800002900110E0FCA3E0FD1236DD90400174E5
:1022900007F0904001E0540170F89043A1E054FE33
:1022A000F0904001E4F09043A1E05401602F7B02E4
:1022B0007A40790290010BE0FCA3E0FD1236DD903C
:1022C000010DE060047F0280027F00EF4401904036
:1022D00001F0904001E05401602980F6227B027AEF
:1022E00041790090010BE0FCA3E0FD1236DD904344
:1022F000A1C083C082E0FF90010EE0FEEF4ED082CD
:10230000D083F0224D6963726F737465707065726B
:10231000202020200053313D4D656E752020533222
:102320003D52756E2000434D443D20202020205218
:10233000756E6E696E67005250533D20202020203C
:1023400053323D53746F70002020202020004469D8
:1023500072656374696F6E20202020202020005356
:10236000313D4E657874202053323D53656C20001A
:102370004469723D20202020202020202020202081
:102380000053313D45786974202053323D536574C4
:102390002000466F727761726400526576657273D1
:1023A000650050686173652043757272656E7420B4
:1023B0002020004970686173653D20202020202086
:1023C00020202000312E304100322E304100312EAD
:1023D0003541004D6963726F20537465707320201E
:1023E000202020007553746570733D20202020202C
:1023F000202020200046756C6C0034202020003105
:10240000362020003332202000313238200052653F
:102410007365742044656661756C74732020005385
:10242000313D4E6578742053323D5245534554003A
:10243000E47F947E01FDFC90012312054090512021
:10244000E05480F0905122E054F0900122F0E044FA
:102450000F905122F0A3E054F0900122F0E090514F
:1024600023F0A3E054F0900122F0E0905124F0908A
:102470005120E054DFF0E04440F0E4FFFE1232F47B
:10248000905120E04410F07F017E001232F4905110
:1024900021E0900122F0905120E054EFF0E4FFFEA3
:1024A0001232F4900122E05408F0905120E04410E0
:1024B000F07F017E001232F4905120E054EFF09052
:1024C0000122E070067F0AFE1232F4900123E0FC44
:1024D000A3E0FDA3E0FEA3E0FF74FFEF24FFFFEE07
:1024E00034FFFEED34FFFDEC34FFFC9001231205B8
:1024F00040900122E06014A3E0A3E0A3E0FEA3E08B
:10250000D39400EE9400400302247A905120E054CA
:10251000BFF0E05480F0905122E054F0F0A3E0547A
:10252000F0900122F0E0440F905123F0A3E054F02A
:10253000900122F0E0440F905124F022C0E0C0F05E
:10254000C083C082C085C084C086758600C0937574
:102550009300C0D075D000C000C001C002C003C04D
:1025600004C005C006C007E4F9A2AF33900127F00C
:10257000D2AF9044F474FDF090656AE0FEFD541E05
:10258000FC60069001C9E04CF0EE30E57A906449B9
:10259000E0FD9001CAE06402702DEE30E01030E6FC
:1025A000089001C67401F080059001C6E4F0900126
:1025B000C6E060249001C5E024CDF582E43401F545
:1025C00083EDF0790180119001C5E024CDF582E41E
:1025D0003401F583EDF07901E9602C9001CBE060E6
:1025E000069001C87401F09001C5E004F0E0C394C6
:1025F000104002E4F09001CCE0FF9001C5E0B50787
:10260000069001CB7401F0EE30E503022578123517
:102610001D9001F17401F01206F1900127E024FFF2
:1026200092AFD007D006D005D004D003D002D0019D
:10263000D000D0D0D093D086D084D085D082D08323
:10264000D0F0D0E0329001BC7401F0E49001B7F01A
:102650007F101237737F101237667D077F1D122E91
:10266000DF9058967404F0A3E4F090589EF0905BCD
:1026700007E04418F0905893E4F0905B88F0A3F0E2
:10268000905880740AF0A3E4F0905883F090588832
:102690007412F0A304F090588DE4F0904E0174147D
:1026A000F090010F7409F0A37401F07B067A697D44
:1026B0006B7C8D7F021217D490010F7410F0A374FD
:1026C00002F07B007A807DDA7C907F041217D49030
:1026D000010F7410F0A37403F07B007A807DDA7C24
:1026E000907F041217D490010F7410F0A37404F0BB
:1026F0007B007A807DDA7C90FF1217D49001BCE0D9
:1027000075F003A424AAF582E43401F583E0904E29
:102710000EF09001BCE075F003A424A8F582E43427
:1027200001F583E0FCA3E0FD7B027A4E790C1236C2
:10273000DD9001BCE0FF121339227593007800751B
:1027400083467582E8E04401F0009046ECE0F990A1
:1027500046FAE0FAB903225420B40012B8001AEA8B
:10276000901FFFF07401901FFEF09046F6F0901F4E
:10277000FEE06005901FFFE0FA90480074C0F0751D
:10278000810C90000078007920E4F0A3D8FCD9FAFD
:10279000EA9001E7F0020011750B1F750CFD123273
:1027A00097121B0B0227E2021F6DE493A3F8E49338
:1027B000A34003F68001F208DFF48029E493A3F834
:1027C0005407240CC8C333C4540F4420C8834004A6
:1027D000F456800146F6DFE4800B01020408102065
:1027E000408090197BE47E019360BCA3FF543F308E
:1027F000E509541FFEE493A360010ECF54C025E009
:1028000060A840B8E493A3FAE493A3F8E493A3C8C0
:10281000C582C8CAC583CAF0A3C8C582C8CAC58351
:10282000CADFE9DEE780BE900082E070359000B339
:10283000E0900083F0900081E0FF12381C90009E31
:10284000E06010900081E004F0E0D394034013E4D2
:10285000F0800F900081E014F0E0D3940340037403
:1028600003F090009EE0601E900081E020E008A34D
:10287000E0900085F0802B900082E0FFC3747F9F82
:10288000900085F0801C900081E030E008A3E0908B
:102890000085F0800D900082E0FFC3747F9F900060
:1028A00085F0900085E0FFC3747F9FA3F0900085C2
:1028B000E02400F582E43400F583E0FF900080F02E
:1028C000123888900086E02400F582E43400F58315
:1028D000E0FF900080F012388E900083E0FF9000BF
:1028E00082E02FF0E0547FF02290010A1205409020
:1028F000011A740AF0E0240FF582E43401F583E450
:10290000F090011AE014F090010AE0A3E0A3E0FEC9
:10291000A3E0C3940AEE94004052E47B0AFAF9F86B
:1029200090010AE0FCA3E0FDA3E0A3E0FF12042F66
:10293000EB2430FF90010EF090011AE0240FF58295
:10294000E43401F583EFF090010AE0FCA3E0FDA37D
:10295000E0FEA3E0FFE47B0AFAF9F812042F9001ED
:102960000A12054090011AE014F0809BE47B0AFAF9
:10297000F9F890010AE0FCA3E0FDA3E0FEA3E0FF6C
:1029800012042FEB2430FF90010EF090011AE0FEAC
:10299000240FF582E43401F583EFF0740F2EF9E48F
:1029A0003401FA7B01122F262212350890010BEF19
:1029B000F09001BCE090010AF09043AAE04401F0DD
:1029C000E04410F09043BAE04401F0E04410F0908D
:1029D00046F8E04402F0A3E04402F0905891E0444D
:1029E00003F07F037E001232F49046F8E054FDF0CD
:1029F000A3E054FDF0905877E04406F090588274BC
:102A00007AF09043A1E04401F09043B1E04401F03A
:102A10009043A2E04402F09043B2E04402F09044BC
:102A2000DB7420F09044C3F090010BE0FF12349966
:102A30002290FFFC120572120540850B83850C82E3
:102A4000E0A3E0A3E0FEA3E0D39400EE9480403D39
:102A50009001E8E0FCA3E0FDA3E0FEA3E0FF122E5E
:102A600000850B83850C82C083C082E0FCA3E0FD5F
:102A7000A3E0FEA3E02400FFEE3480FEED34FFFD72
:102A8000EC34FFFCD082D08312054080AD9001DE93
:102A9000E0FCA3E0FDA3E0FEA3E0FF850B83850C33
:102AA00082E0F8A3E0F9A3E0FAA3E0FB1203A4128A
:102AB0002E009000041205722290013CEFF0783D48
:102AC0007C017D017BFF7A3879D67E007F09120672
:102AD0007F78467C017D017BFF7A3879DF7E007F3D
:102AE0000912067F90013CE0D39408504890580E9C
:102AF000E05480F0C083C082E0FF90013CE0FE24FF
:102B000046F582E43401F583E0FD25E025E0540C30
:102B1000FC743D2EF582E43401F583E04CFEEF4E6B
:102B2000D082D083F090580DE054F3F0E0FFED44F4
:102B30000CFEEF4EF02290013CEFF0783D7C017DE1
:102B4000017BFF7A3879E87E007F0912067F78469C
:102B50007C017D017BFF7A3879F17E007F091206C6
:102B60007F90013CE0D394085048905806E0548090
:102B7000F0C083C082E0FF90013CE0FE2446F58275
:102B8000E43401F583E0FD25E025E0540CFC743DC0
:102B90002EF582E43401F583E04CFEEF4ED082D076
:102BA00083F0905805E054F3F0E0FFED440CFEEFA5
:102BB0004EF0227B0C7A0179CF123798EF540790B0
:102BC000586EF0EFC4540FA3F090510D7401F090C3
:102BD000513D7450F0905A107410F0905A1874804F
:102BE000F0905A307440F0905A387404F0905A9033
:102BF0007420F0905A98F0905AD07480F0905AD483
:102C00007420F0905AD87404F0905ADC7420F0903C
:102C10005B007410F0905B587480F09058767444A8
:102C2000F022E47F28FEFDFC122A317F0312336775
:102C3000E47F05FEFDFC122A317F03123367E47F37
:102C40000FFEFDFC122A317F03123367E47F01FE81
:102C5000FDFC122A317F02123367E47F05FEFDFC82
:102C6000122A317F061233447F0E1233447F2C1216
:102C700033447F081233447F011233447F0C1233F4
:102C8000447F03123344E47F05FEFDFC122A312207
:102C900090010CECF0A3EDF090010BEFF0D3941F3A
:102CA00050028001C340057F001234F390010BE015
:102CB000541F25E0FFE433FEE42FFFEE3444FAA96D
:102CC000077B011236CE90010EEEF0A3EFF09001DB
:102CD0000BE075F002A42400FFE5F03444FAA907E4
:102CE0007B01A3E0FEA3E0FFFDAC061236DD900100
:102CF0000EE0FEA3E0FF22904E14E0540390010C7E
:102D0000F0E0D394015021904E11E0FF90010AE4CD
:102D1000F0A3EFF0E0FE904E10E0FDEEEDFF90012D
:102D20000AEEF0A3EFF0801B7B027A4E7910123688
:102D3000CE90010AEEF0A3EFF0A3E0B40305904EAD
:102D400012E0FF9001C2E06005E49001B7F090014D
:102D50000AE0FEA3E0FF22C0E0C0F0C083C082C052
:102D600085C084C086758600C093759300C0D075F9
:102D7000D000C000C001C002C003C004C005C0062E
:102D8000C00790008AE004F07006900089E004F02B
:102D9000123840D007D006D005D004D003D002D0DE
:102DA00001D000D0D0D093D086D084D085D082D02E
:102DB00083D0F0D0E032EF5403FE905843E054FC4F
:102DC0004EF0EFB4011D7B0C7A0179131237989005
:102DD0004636EFF07B0C7A01791712379890463718
:102DE000EFF0227B0C7A0179B3123798904636EFD8
:102DF000F07B0C7A0179BB123798904637EFF022BE
:102E0000EC4D4E700D78FCEF24E950032840FD2274
:102E1000000078C5904800E0C403035403902E4797
:102E20009325E0240FF404FBEF28FF78FFEE38FE33
:102E3000ED38FDEC38FC50D7EF2BFFEE38FEED38C7
:102E4000FDEC38FC40F22205020304EF5403FE902F
:102E50005842E054FC4EF0EFB4011D7B0C7A01792E
:102E600012123798904634EFF07B0C7A01791612E3
:102E70003798904635EFF0227B0C7A0179B1123702
:102E800098904634EFF07B0C7A0179B9123798901C
:102E90004635EFF0229044C87401F09001CCE0FE7A
:102EA0009001C5E0FD9001CBE07004EE6D602474EC
:102EB000CD2EF582E43401F583E0FF0EEEC39410CD
:102EC0004002E4FE9001CCEEF09001CBE06009E41A
:102ED000F08005906449E0FF9044C07401F02290B6
:102EE000010AEFF0A3EDF0D3940750028001C34034
:102EF000057F001234F390010AE0D3941F50028042
:102F000001C340057F001234F390010BE0540775B4
:102F1000F020A4FF90010AE0541F2480F582E434DD
:102F200044F583EFF02290011BEBF0A3EAF0A3E954
:102F3000F0A37401F01202F890011FF090011FE05D
:102F4000FF602612332190011BE0FBA3E0FAA3E00F
:102F5000F9A3E0FFE92FF9E43AFA1202F890011F11
:102F6000F090011EE004F080D322C2D5E830E70FD4
:102F7000B2D5E4C39BFBE49AFAE499F9E498F8EC3F
:102F800030E717B2D5122FA012042FE4C39BFBE445
:102F90009AFAE499F9E498F8800312042F30D50DD9
:102FA000E4C39FFFE49EFEE49DFDE49CFC227C259F
:102FB0007D3CE4FF122C907D06E4FF122EDFE490AE
:102FC00001C9F07F0112341DE4FF12387CE4FF12C6
:102FD000388290648B7471F090658A7420F09064EC
:102FE0002D7406F090643D7447F090648CE4F022F8
:102FF000E4900081F0900085E02400F582E4340044
:10300000F583E0900080F0E0FF1313543FFFF012CF
:103010003888900086E02400F582E43400F583E0EF
:10302000900080F0E0FF1313543FFFF012388E221F
:10303000900122EFF0905120E04420F0E054BFF0E6
:10304000E4FFFE1232F4905120E054F0F0C083C04F
:1030500082E0FF900122E04410FEEF4ED082D08348
:10306000F07F017E001232F4905120E054EFF02204
:1030700090010AEDF0EF14601514601D1460252412
:1030800003702B90010AE02480FF12334422900148
:103090000AE024C0FF1233442290010AE02494FF86
:1030A0001233442290010AE024D4FF1233442290C8
:1030B000010BEFF012350890010CEFF09046F8E0AC
:1030C0004403F0A3E04403F090010BE0905892F029
:1030D0007F037E001232F49046F8E054FCF0A3E047
:1030E00054FCF090010CE0FF12349922904F00E064
:1030F0005401F0904F02E054FCF0904F0BE054CF9D
:10310000F0E04430F0E054F0F0E0440FF0904F0174
:10311000E04401F07F647E001237307F647E00124D
:10312000373E7F081238702290013BEFF0B4010B5C
:103130007F07122AB97F07122B362290013BE0B499
:10314000020B7F06122AB97F06122B362290013B12
:10315000E0B4030A7F04122AB97F04122B362290AE
:10316000647FE054C0FF4409F090649FE04401F0A4
:103170007FF01238287FF012382E7F7F1238347F8C
:103180000412383A12350890649FE04410F012346B
:103190009912374C22906579E054C0FF4409F090B1
:1031A0006599E04401F07FF012384C7FF0123852FC
:1031B0007F7F123858E4FF12385E12350890649D04
:1031C000E04410F012349912375922123508900158
:1031D0000AEFF090649BE04420F090659AE0441080
:1031E000F09044C07401F0E49001C6F090649CE05B
:1031F0004410F01236BD90010AE0FF123499227596
:103200008600EF4E6027EF60010E7593009001126B
:10321000E0F595A3E0F585A3E0F5848B938A838997
:1032200082E0A30586F0A31586DFF6DEF4E4F593CD
:10323000F5952290582CE0540C7E007802CEC313F2
:10324000CE13D8F92406FFE4EF2438FFE43401FE5E
:10325000E4340CFDE433A907AA06AB0512379890B5
:10326000460BEFF022905828E0540C7E007802CEF6
:10327000C313CE13D8F92406FFE4EF2428FFE43467
:1032800001FEE4340CFDE433A907AA06AB051237AE
:103290009890460AEFF022E4900108F0900108E0CF
:1032A000FFD3941F5020EF75F002A42400FFE5F037
:1032B0003444FAA9077B017C387D941236DD9001F5
:1032C00008E004F080D622ACEAADA08B938A838913
:1032D00082E0F96017A3E0F5EAA3E0F5A0A3E060BF
:1032E000F4FAA3E0F8A3E0F2DAF8D9E98DA08CEAC9
:1032F000E4F59322EEFA9001E2E0F88FF0A4FFAE3D
:10330000F0E88AF0A42EFEE5F03400FDEF24C9FFBA
:1033100078FFEE38FEED38FDE438FC5003022E0055
:1033200022900120EFF0122430900120E0FFC454DD
:103330000FFFA3F0123030900120E0540FFFA3F0F4
:103340001230302290010BEFF012243090010BE08C
:10335000FFC4540FFFA3F012336790010BE0540F2A
:10336000FFA3F012336722905120E0549FF0E05405
:10337000F0F0E0FEEF4410FFEE4FF07F017E001210
:1033800032F4905120E054EFF0227F01122DB690DC
:103390005843E04420F0E054FBF0E04408F0905A39
:1033A000DFE054E7F0E04410F0227F01122E4B9052
:1033B0005842E04420F0E054FBF0E04408F0905A1A
:1033C000D7E054E7F0E04410F0229001C2E060073B
:1033D0009001B7E0FE8007904E01E05401FEEE64DC
:1033E000016003EF60E4AF062290580C740CF0A368
:1033F000E04420F0A37480F0E4FF122AB97F0212A7
:10340000370622905804740CF0A3E04420F0A37413
:1034100080F0E4FF122B367F021237142290647979
:10342000E0541FFEEFC43354E04EFEF09001CAEFAB
:10343000F0E49001C6F0229001BDE0700F9001C34E
:10344000E070031226459001BD7401F01229A922F3
:10345000EC4D6011ED60010C8B938A838982E4F05E
:10346000A3DDFCDCFA75930022900202E0700912E1
:10347000363D9002027401F012369F7F6412388844
:1034800022900203E0700912365F9002037401F08B
:103490001236AE7F6412388E22EF54016004D2AF30
:1034A0008002C2AFEF5402FF9044F4E054FD4FF0AD
:1034B000229043A9E04408F09043B9E04408F0901A
:1034C0005877E04480F0229043A9E04402F0904312
:1034D000B9E04402F0905877E04480F0229043A392
:1034E000E04401F09043B3E04401F0904F00E04429
:1034F00001F02290FFFF120572EFF09046EA74018E
:10350000F0900001120572229044F4E0F84402F0B9
:10351000E85402FF10AF012274014FFF2290656A48
:10352000E0547FFF9001C8E06006EF4480FFE4F0C4
:103530002290582CE054F3F0E0FEEF540CFFEE4FD5
:10354000F012323322905828E054F3F0E0FEEF54AA
:103550000CFFEE4FF0123265229001FAE070091272
:10356000338A9001FA7401F0123681229001FBE057
:1035700070091233AA9001FB7401F01236902212E6
:1035800038077E2D7F571236EA7F061237B0123881
:1035900000221238157E157FE71236F87F061237A3
:1035A000BA12380E229001F8E07009122C22900114
:1035B000F87401F0123780229001FDE07009123397
:1035C000E99001FD7401F01234B1229001FEE07027
:1035D000091234039001FE7401F01234C7229001E5
:1035E000FFE0700912315F9001FF7401F01237E0C3
:1035F00022900200E070091231959002007401F0EF
:103600001237E822905101E054047E007802CEC3C4
:1036100013CE13D8F9FF22900201E070091230ECAA
:103620009002017401F01234DD229001C7E07009AC
:10363000122FAE9001C77401F01231CB2290582C9A
:10364000E4F0A3F0FF1235317F0212364E2290587B
:103650002CE054FDF0E0FEEF5402FFEE4FF022901C
:103660005828E4F0A3F0FF1235457F02123670228D
:10367000905828E054FDF0E0FEEF5402FFEE4FF0CA
:10368000229043A7E04408F09043B7E04408F022BA
:103690009043A7E04404F09043B7E04404F0229044
:1036A00043A8E04408F09043B8E04408F022904377
:1036B000A8E04404F09043B8E04404F0229043A210
:1036C000E04408F09043B2E04408F0228B938A83F0
:1036D0008982E0FFA3E0FE759300228B938A8389A1
:1036E00082EDF0A3ECF0759300227B027A4479021C
:1036F000AD07AC061236DD227B027A447922AD0793
:10370000AC061236DD2290580DE054FCFEEF540357
:103710004EFEF022905805E054FCFEEF54034EFE9E
:10372000F022905101E05402FFE4C313EF13FF2293
:103730007B027A4F7904AD07AC061236DD227B029C
:103740007A4F7906AD07AC061236DD22123840EF0B
:1037500030E40512384680F422123864EF30E40574
:1037600012386A80F422904102E0FEEF54F8FFEE36
:103770004FF022904086E0FEEF54F8FFEE4FF0222B
:103780007F0C1233449001F97401F0229001C7E0DC
:10379000600590644EEFF0228B938A838982E075F6
:1037A0009300FF228B938A838982EDF07593002228
:1037B000EFC43354E0904481F022EFC43354E090DE
:1037C0004491F0227B027A4179001236CE227B02AC
:1037D0007A4079841236CE22904E00E04401F022E5
:1037E00090647FE04480F022906579E04480F0228C
:1037F000904102E05407FF22904086E05407FF22E8
:103800009044C07402F0229044C87402F0229044A4
:10381000C27402F0229044CA7402F02290647CEFD9
:10382000F02290647EEFF02290640FEFF02290641B
:103830004FEFF02290642FEFF02290648FEFF02290
:1038400090646FE0FF2290645FE0FF22906509EFD3
:10385000F022906549EFF022906529EFF022906404
:103860008DEFF02290646DE0FF22906559E0FF2219
:10387000904F03EFF022904F03E0FF22906429EF76
:10388000F022906439EFF022905B83EFF022905B9E
:1038900082EFF02280FE3280FE22323232325B032F
:1038A00043244000004F00000C0051400010005124
:1038B0006000100051C000100051F0001001000025
:1038C000100001140008000140000A00014C000231
:1038D0000001500000200111213141615363730840
:1038E00009010105070704040111213141615363F6
:0A38F000730809010105070704042D
:00000001FF
