:100000000C94760F189518951895189518951895BD
:100010001895189518951895189518950C94E70942
:100020001895189518951895189518950C94190DFC
:100030001895189518951895189518951895189558
:100040000C948A0D189518950C9483090C947C09CE
:100050000C94AC091895189518951895189518953D
:10006000189518951895189500C1814001C08041D8
:1000700001C0804100C1814001C0804100C1814078
:1000800000C1814001C0804101C0804100C1814068
:1000900000C1814001C0804100C1814001C0804158
:1000A00001C0804100C1814001C0804100C1814048
:1000B00000C1814001C0804100C1814001C0804138
:1000C00001C0804100C1814000C1814001C0804128
:1000D00001C0804100C1814001C0804100C1814018
:1000E00000C1814001C0804101C0804100C1814008
:1000F00000C1814001C0804100C1814001C08041F8
:1001000001C0804100C1814000C1814001C08041E7
:1001100001C0804100C1814001C0804100C18140D7
:1001200000C1814001C0804100C1814001C08041C7
:1001300001C0804100C1814001C0804100C18140B7
:1001400000C1814001C0804101C0804100C18140A7
:1001500000C1814001C0804100C1814001C0804197
:1001600001C0804100C1814000C0C101C30302C27F
:10017000C60607C705C5C404CC0C0DCD0FCFCE0EE7
:100180000ACACB0BC90908C8D81819D91BDBDA1A57
:100190001EDEDF1FDD1D1CDC14D4D515D71716D6C7
:1001A000D21213D311D1D010F03031F133F3F23237
:1001B00036F6F737F53534F43CFCFD3DFF3F3EFEA7
:1001C000FA3A3BFB39F9F83828E8E929EB2B2AEA17
:1001D000EE2E2FEF2DEDEC2CE42425E527E7E62687
:1001E00022E2E323E12120E0A06061A163A3A262F7
:1001F00066A6A767A56564A46CACAD6DAF6F6EAE67
:10020000AA6A6BAB69A9A86878B8B979BB7B7ABAD6
:10021000BE7E7FBF7DBDBC7CB47475B577B7B67646
:1002200072B2B373B17170B05090915193535292B6
:1002300096565797559594549C5C5D9D5F9F9E5E26
:100240005A9A9B5B99595898884849894B8B8A4A96
:100250004E8E8F4F8D4D4C8C448485458747468606
:10026000824243834181804000000001010101017D
:100270000202020203030303040404040505050546
:10028000060606070708080809090A0A0B0C0C0DE0
:100290000E0E0F1010111213141415161718191A28
:1002A0001B1C1D1E1F20212324252628292A2C2D16
:1002B0002F30323436383A3C3E414346494C4F5356
:1002C000575B5F64696E737980878E9600010101C8
:1002D00001020202030303030404040405050506E6
:1002E00006060707080809090A0A0B0B0C0D0D0E74
:1002F0000F0F101112131415161718191A1B1C1DA5
:100300001F20212324252728292B2C2E303133355B
:1003100037383A3C3E414345484A4D5053565A5D62
:1003200061656A6F74797F858B929AA2ABB4BDC800
:100330005EC6D5BB94B0D0A4C398A98CBC802F75E1
:100340002A6ACC5F2A564E4D3A45EA3D56377231FD
:10035000312C85275E23B01F6D1C8A19FB16B6143D
:10036000B312E910530FE80DA60C860B840ABD01E9
:100370008501000085000001D624A1D0143010F0C2
:1003800021E09ED0F999FECF12BD01BD01E00FBB67
:1003900000B50895003034E0130708F018C03FB7E7
:1003A000F894F999FECFF0DF0227102F122339F0CD
:1003B0002F3F19F020BD04E006C004E104C0002373
:1003C00021F020BD04E20FBBF99A3FBF089501E080
:1003D0000093850108950E941D12C80126D0A02F08
:1003E00001968C0122D0B02F8D01E4E00C942912EB
:1003F0000E941D12D801932F30D0292F11968D0104
:100400002CD0F3CF0E941B12280110D0802F820124
:100410000DD0902F820109D0A02F20D006D0B02F70
:100420008C019D01E6E00C94271238C037D011E012
:10043000410E10E0511E08950E941B122801952FB5
:10044000DB01242F0ED0292F82010BD02A2F82010D
:1004500004D02B2F03D001D0E5CF09C003D08201F7
:10046000089505D001E0400E00E0501E089530E0F0
:1004700030938501003034E0130708F0A8CF3FB770
:1004800047B740FDFDCFF999FECFF89412BD01BDED
:1004900020BDFA9AF99A3FBF7894089510D00030A1
:1004A00024E0120710F021E00BD02FB7F999FECF0E
:1004B000F89412BD01BDF89A00B52FBFEDCF20E032
:1004C0002093850108951FB7F8940091600008619A
:1004D000009360000FE0009360001FBF0895202F7D
:1004E00000917C00022B00937C0000917A00006454
:1004F00000937A0000917A00102F16FDFBCF009137
:1005000078001091790008950FEF13E00E94380BE6
:10051000C8D10E94750D0FEE13E050D20A3A09F0CF
:10052000DBD10E940D0A07E5402E01E0502EAEE51A
:10053000B1E0ED91FC918080E7E5F1E0DAD048E1AF
:1005400050E020E031E011E009E20E944E0701C0D6
:10055000A895C9D0003D174020403040C8F3A89569
:10056000C2D0E6E8F1E04081518162817381401799
:1005700051076207730708F0B0C0B5D00C591F4F80
:100580002F4F3F4FE6E8F1E000831183228333834E
:10059000ACD0048115812CD1008B118BA6D00681A3
:1005A000178126D1028B138BA0D084819581A681DF
:1005B000B781FED180179107A207B30731F095D01C
:1005C0004481558166817781EFD18FD001850023E9
:1005D00011F02D9A01C02D980E94120C0E94A80BB8
:1005E0000E946C0C0E94B80C0E94440C41E029E06F
:1005F00054D1013009F062C0282D30E0F2010781AA
:10060000F085E02F008111812017310769F4F20194
:100610000185F285E02F008111816016710621F4B9
:1006200070D00081901629F10E944505002309F53C
:100630000E942605D2011796ED91FC918080F2016F
:1006400058D0BAD1081519F0282D05E049D09AD113
:100650000615170519F093010BE09AD10DE0ADD105
:10066000091519F0292D0DE03BD000E000938A0117
:1006700004C000918A010023F9F4392DA30160E040
:1006800070E020E0182D00E00E94E0040023A1F4B7
:100690000E94370501E000938A01A5D004ED12E025
:1006A0000E94BD08E2E0F3E000E010E0048B058B5F
:1006B00004E6068B178BE5D029D00FC000918A0184
:1006C000013051F40E944505002331F40E942605B3
:1006D00000E000938A01D5D08ED00E945C053FCF08
:1006E00010E00C94CA010C947F0D0E94840DF80157
:1006F00008950185F285E02F6080718002D090809E
:100700000895F2010385F485E02F0895BA93AA9322
:1007100000915301013019F400E00093530141E0CE
:1007200028E059D079F450E041E028E0ACD00FEF58
:1007300014E32CE0015010402040E1F700C000001D
:100740000E94000041E027E046D059F44CD09CD0F4
:1007500038D02FEF0FEE13E00E94CA0132D00E9472
:10076000000000915D0101FD29C041E023E036D089
:10077000002311F05E9A01C05E98A6E1B3E00D91EE
:100780001C915597012BD1F083D011F05E9A01C0D6
:100790005E9856960D911C915797053620E01040B3
:1007A00028F004E656960D932C93579756960D9184
:1007B0000E94640B1DD0068517855BD0A991B99165
:1007C00008950FEF10E722E0015010402040E1F7BC
:1007D00000C00000089502D00130089530E00AED15
:1007E00012E00C94DD0850E041E027E030E008958D
:1007F000E0EEF2E008959A938A93FADF8685978572
:100800008230904020F000E00093760104C0009117
:100810007601013059F13CD019F0339B03C004C07C
:10082000339B02C001E001C000E0802F582F41E05F
:1008300023E029D0DDDF2285338506851785023048
:1008400040E0140750F0223E304080F02FEFE2E00D
:10085000F3E0248B258B0DD009C02B37304030F4CA
:1008600010D080FB16F45E9A01C05E988991999130
:1008700008950E94760BEEE6F1E0028313830C9458
:10088000E40A0C941D0B30E00AED12E00C94BD0854
:1008900041E027E002D00023089530E004ED12E0AB
:1008A000A0CF00E00AB907B904B903E204B904E330
:1008B00007B906EE0AB900E00BB908B905B900ECB2
:1008C00005B909E008B90AE10BB900E000936F002F
:1008D00005BF78940C94630203C024E005E05BD06C
:1008E0006BD00430D1F74ED000301B4441F020E0F3
:1008F0003BE40BE04BD0F7CF20E00DE04CD00DE017
:100900005CD00023C9F700E158D0003A39F020EA62
:1009100000E141D0F8CF21E001E13DD001E14DD02F
:100920000130C9F703E149D00A3039F02AE003E188
:1009300032D0F8CF2AE004E12ED004E13ED00A30D4
:10094000C9F705E13AD0083049F028E030E005E188
:100950001DD0F7CF2EE130E007E118D007E12DD010
:100960000E31C1F725D0012B022B032B39F040E0CB
:1009700050E060E070E018D00FD0F4CF2AEA0FEE1C
:1009800013E0AFCE0BE010E00C94EB0101D004C0FB
:1009900010E00C94F801A4DE0FEC17E001501040B9
:1009A000E9F700C00000089509E110E00C941C0272
:1009B00009E110E00C94020205E010E00C94BD0186
:1009C0008A93022E232F1123B1F1312F3A95373F0D
:1009D00090F5E8E1F1E010AF002369F500EC17E0D5
:1009E00006A317A309EC17E000A711A70CEF17E067
:1009F00004A315A30FEC17E002A713A700E004A7B8
:100A000005A70EE318E006A717A704E718E000AB58
:100A100011AB06EA18E002AB13AB102D00915001A8
:100A20000E949407802F002371F40E94080900237C
:100A300021F483E008C082E006C000E00093510189
:100A400001E000935201082F899108958A9380E074
:100A5000E8E1F1E002AD013041F404A515A5003054
:100A6000180721F0F801099501C086E0ECCF1BD0F2
:100A7000013031F4AEE3B1E01CD08093520101C0EB
:100A800086E0082FE4E00C9429120DD0002339F4FD
:100A9000A0E4B1E00ED001E00093520103C00130A8
:100AA00009F086E0EECF0E941D1280E00091520115
:100AB0000895ED91FC910994BA93AA932197A8E126
:100AC000B1E000915201002311F006E06BC08E01ED
:100AD0000E941309013009F064C008810A9519F0D9
:100AE0000A95E1F05EC04EE451E02CE431E004E50B
:100AF00011E09A96DEDF002309F053C00091540103
:100B000010915001011719F0002309F04AC001E0CB
:100B10000093530102E00E940D0943C0FD0164A946
:100B200075A9FB0120812093550101E00093560136
:100B300040E050E003E010E00E94880FFD01E00F6C
:100B4000F11F0081002391F0021751F42EE431E0EF
:100B50008B014181F281E42F09950093560106C073
:100B60004F5F5F4F4C3000E0500724F30091540179
:100B70000023B9F0FD0124A935A916AD112359F0C0
:100B8000009155010068F9010083118302E010E033
:100B9000FD0106AB17AB46A957A9009150019496E9
:100BA00088DF00E02196A991B9910895282E6FEF72
:100BB0008FEF11C0082EF80141918F010426E02D1E
:100BC000F0E0E859FF4F44916427862FE02DF0E0D4
:100BD000E859FE4F6491A90121503040452B51F74F
:100BE000162F082F822D08950E941C12D90180E033
:100BF0002D913C9111972530304079F5F80167D05F
:100C000013804481042E412941F140ED041647E050
:100C1000140618F58D938C93119701E0019322D05F
:100C200043E080010E94960F102D177009F0039584
:100C3000402E419217D060E0A0018F010E94D70E94
:100C4000002321F00E94F908802F08C00D911C910B
:100C5000040D181F1C930E9301C083E0082FE5E0DC
:100C60000C9428120D911C910F5F1F4F1C930E9333
:100C700008950E941D122297F80180E0D9010D917C
:100C80001C9105301040E9F422D004810023C9F4FE
:100C900003810F3F11F00023A1F4898303810F3FEB
:100CA00019F401E0088301C0888361E041E050E06D
:100CB0008E010E94D70E002329F00E94F908802F90
:100CC00001C083E0082F2296E4E00C9429123181C0
:100CD00022812F5F3F4F08950E941C12D90180E0AE
:100CE0002D913C9111972530304081F5F8013181EB
:100CF00022812F5F3F4F73814481642F472B31F155
:100D0000603D47E0740710F58D938C93119702E0D6
:100D1000019321D043E08B010E94960F162F17708C
:100D200009F00395402E419216D0AB018F010E942D
:100D3000280F002321F00E94F908802F08C00D9190
:100D40001C91040D181F1C930E9301C083E0082F03
:100D5000E5E00C9428120D911C910F5F1F4F1C931E
:100D60000E9308958A9380E0F90120813181253026
:100D7000304091F461E041E050E0F801318122819E
:100D80002F5F3F4F0D5F1F4F0E94970E002329F0EA
:100D90000E94F908802F01C083E0082F89910895EF
:100DA0000E941C12D90144242D913C9111972530A9
:100DB000304039F5F8013181228150E02F5F3F4FFB
:100DC000848190E0482F8823E1F08E37D0F45D9342
:100DD0005C93119703E01BD0082F000F18D060E040
:100DE0008F010E94970E002319F00E94F9080AC093
:100DF000880F991F0D911C91080F191F1C930E93BA
:100E000002C003E0402E042DE5E00C94281201936B
:100E10000D911C910F5F1F4F1C930E9308950E941C
:100E20001C12D90144242D913C911197253030405A
:100E300039F5F801318122812F5F3F4F9381448141
:100E4000842F492BE9F08D379405D0F44D924C92C4
:100E5000119704E01BD0082F000F18D0AC018F01B0
:100E60000E94730E002319F00E94F9080AC0880F2F
:100E7000991F0D911C91080F191F1C930E9302C00E
:100E800003E0402E042DE5E00C94281201930D910F
:100E90001C910F5F1F4F1C930E9308950E941B120D
:100EA000702F80E0AFE8B1E0EBE7F1E00081F18185
:100EB000E02FA58BB68B2A0102E0400E581E00E2FF
:100EC00040165806B8F470938F0102E0FD0100A3AC
:100ED00081A3112319F00FEF018301C08183042F37
:100EE000052B49F001E911E00E943412FD0140A2F6
:100EF00051A201C084E0082FE6E00C9427120E9462
:100F00001D12C901EFE8F1E0A0A1B1A1AD019F015F
:100F10000F5F1F4F0E9434121196FC01A083B18312
:100F200000E0E4E00C9429120E941C12012FCA0177
:100F3000DB014424F89418E00E9440090130C9F410
:100F400081300BE49007A405B40510F003E20CC057
:100F5000880F991FAA1FBB1FAC01BD0100EA1FE744
:100F600027E130E00E94E60F10E00E94AE09013058
:100F700011F003E0402E7894042DE5E00C94281243
:100F8000F89400E00093B801DED00E94C409789480
:100F90000895F89410E06FD00E94DB09F8CF0E940A
:100FA00019123801D9012A0180E0F89420D00430C8
:100FB0001040B8F02481358109EB11E00E94D6057C
:100FC000012B79F40091B901F301008310D0035093
:100FD0001040F201008311830AEB11E00D931C9382
:100FE00001C085E07894082FE8E00C942512E1EB2D
:100FF000F1E00481158108956DD0602F80E0F894B0
:10100000A1EBB1E00091B801013019F52150304059
:101010002D933C93119701E0FD0102838383ED91B1
:10102000F32F119760838BD0040F151F0283138356
:10103000228133810D911C9111970E94D6050FD00A
:1010400000830DD0108301E00093B70111E013D0AD
:1010500001C085E07894082FE4E00C942912FD018A
:10106000428153819A012F5F3F4F22833383FA01DC
:10107000E754FE4F089500E00C9423092BD02197EC
:101080008E010E947709E1EBF1E007810023E9F08E
:101090000A9529F00A9569F00A95B9F018C000E0A0
:1010A0000483058319D0D801A754BE4F2C9302E0C6
:1010B0000BC004811581113030F40ED0F801E754D3
:1010C000FE4F208302C003E007830E94C40900E0B2
:1010D0002196C2CF0C941D1204811581C80101967E
:1010E0008483958328810895F5DF80E0A1EBB1E04A
:1010F0000091B701002319F00A9519F01FC023D001
:101100001DC01DD0012B91F0ED91FC911197008134
:101110000E9473090D911C910F5F1F4F1C930E933A
:101120000ED0015010400283138308C003E00E94D8
:101130000D09802F08D000E00093B7018CCFFD018E
:1011400002811381089510E001E096CF8A9380E038
:101150000091B801002319F0025019F006C000E018
:1011600001C001E00E940D09802F0E94DB0901E00F
:101170000093B801082F89910895F801042E35D005
:10118000302F330F330F330F231BE00FF11F60811C
:101190007181402D27D0015010400CD00095109542
:1011A00060237123052F10E005D0062B712B0083DF
:1011B00071830895422F0C94900FF801542F15D08D
:1011C000602FE00FF11F00811181422F660F660F23
:1011D000660F461B0E94960F202F452F03D00A95BD
:1011E0000223089501E010E0E6CF43E089010C946A
:1011F000960F002329F00A9529F0065029F006C021
:1012000000E0089502E0089506E0089504E00895DE
:1012100000E00093BA0201E0089511E01093BA02D1
:101220000093B902F8CFAD0120E0E9EBF2E03181A3
:10123000332331F02081D8012C9300E0018321E099
:10124000022FDA0108952091C10028642093C10083
:1012500000230091C10011F0006901C00F760093D6
:10126000C100112339F00091C10008620093C10050
:10127000289A08950091C1000F7D0093C100089540
:101280000E941E12042E912FA22F80E044E0002D18
:10129000152F9B010E94D60FA801B90100E012E1B1
:1012A0002AE730E00E94E60F0A950093C400AA9551
:1012B00021F0AA9519F480E201C080E3975021F053
:1012C0009A9519F4866001C084600091C200082BD1
:1012D0000093C20010E000E0B6DF209A289801E0F9
:1012E000E3E00C942A120093C60001E008952091D7
:1012F000C600F8012083F9CF0CD0E0914801F091AD
:10130000490118D0189505D0E0914601F0914701A8
:10131000F8CF8A93FA93EA933A922A921A920A920F
:101320007A936A935A934A933A932A931A930A9315
:101330008FB7089509958FBF099119912991399116
:101340004991599169917991099019902990399011
:10135000E991F991899108952898189520E030E055
:1013600044E254EF60E070E00E94B60F40E25EE4B9
:101370000E94E60FEBEBF2E00083118300E00093A4
:10138000B10019D001E0089500E00093B200EBEB4A
:10139000F2E000811181012B41F0009170000260A8
:1013A0000093700000810093B3000091B1000560CC
:1013B0000093B10008950091B1000A7F0093B1003D
:1013C000009170000D7F00937000B99A08958A9380
:1013D000FA93EA933A922A921A920A927A936A9329
:1013E0005A934A933A932A931A930A938FB7E091A8
:1013F0004A01F0914B0109958FBF099119912991EB
:10140000399149915991699179910990199029904F
:101410003990E991F991899118950E941D1200E087
:10142000009381000093800008E00093810001D1C7
:10143000C0D004E610E04DD2018F128F0789087FDB
:101440000360078B00E4008F10937A0005E8009397
:101450007A0000E400937C0080EE92E004E6FC0158
:10146000048F158F05E6068F178FA2E0B3E005E025
:101470009CD0068317830BE08ED0048715870DE080
:1014800093D00087118701E00287138708E0068761
:10149000178700E18AD0048F158F01E186D0028F73
:1014A000138F02E182D0068F178F03E17ED006A74B
:1014B00017A705E170D002AB13AB07E110E06BD0CA
:1014C00004AB15AB0BE16BD0028B138B09E167D03A
:1014D000008B118B0FE163D00283138304E164D08E
:1014E00000AB11AB1E9903C0048D158D02C0028D97
:1014F000138D00A311A3EBD1FC0122893389F801DC
:1015000026833783E4D1FC0120893189F8012483C3
:101510003583FD0100A9D8D0FD0106A517A5FC0162
:10152000008F118FFD0104A915A9FC01068B178BF3
:1015300072D12ED0FC01008311836DD150E041E0C7
:101540002AE09BD151E01ED096D100E0FD01048B32
:10155000058BFC01028B038B008B018B85D00E7FEA
:10156000068310D0F1D1002311F05F9A01C05F987B
:1015700074D011F05D9A01C05D98429A5ED0E4E0AB
:101580000C94291241E029E030E00AED12E00895C0
:1015900006E00C946F020E94EB01FD01089510E03B
:1015A0000E94EB01FC01089510E00E94BD0110E0D3
:1015B000F4CF00918100087F0093810000916F00BB
:1015C0000D7F00936F000895BA93AA935D9AA7E5E3
:1015D000B1E0B3D002811381FD01038F148FB4D029
:1015E00039F4FD01038D148D000F111F038F148F2B
:1015F00000E00093850000938400FD01018D128DB1
:10160000109389000093880000916E01077010917B
:101610008100102B109381000CD051E041E020E0BC
:1016200097D129D1FD01068102600683A991B99164
:10163000089500916F000260C4CF00E04AD1038F8B
:10164000048FB7DF0AD011F4DED05D9850E041E09E
:1016500020E009D00D7F0683089541E02AE094DF61
:1016600073D1002308950ED1E7E5F1E006810895D6
:10167000053020E0120718F401E010E006C0053F35
:1016800023E0120710F004EF13E05AD040E050E0DE
:1016900060E87FEB0E94C51040E050EC6CE774E41A
:1016A0000E949C110CD00E94231109D00E94C510E9
:1016B0000E94731010E045D10487158705C040E0F3
:1016C00050E068E472E4089538D020A131A12837B1
:1016D00010E03040F80119F4E959FD4F02C0E5531C
:1016E000FD4F04912ED10687178708950E94191285
:1016F000C8012AD011F4880F991F00916F0110E0E2
:101700001FD02801390119D0428153818C010E94D8
:10171000880F4CE38BD114D0A201B3010E94231196
:10172000A801B90100E014E224EF3AE40E949C1100
:101730000E947310E8E00C942512E2E0F3E00895B3
:1017400020E030E00C9471101DDFFED001300895D0
:101750000E941D1280EE92E0ADE7B1E0009184019D
:101760000A9589F1055019F10A95F1F50091830167
:10177000102F1A9510938301002349F007E009DF29
:101780002D913C91200F311F3C932E930EC000E40D
:10179000009383010D911C9111970E94FF0DFC0194
:1017A0000283138300E00D930C9306E01BC0F0DE70
:1017B000FD01228133811FD022833383FC012083EA
:1017C000318301E00FC027D001E0E3DEFD01248179
:1017D000358111D0248335838901FC012287338729
:1017E00047DF07E00093840100917C00087F0093AD
:1017F0007C0009D0C4CE021B130B44E00E949C0F56
:10180000200F311F08950FEC17E001501040E9F749
:1018100000C00000089501E00E946F02FC010287F1
:10182000138708951E9B02C008E701C000EA10E07C
:1018300084DF00A311A350E01E9951E041E026E0AF
:1018400087D019D04B9904C051E041E029E012C083
:1018500050E041E029E013D01F9951E041E025E03C
:101860000ED04C9951E041E027E009D0309951E089
:1018700041E028E06DD00C94BD0886DEFCCF02D09C
:1018800050E0089565D0F7CF429906C01CD011F002
:101890005A9A0BC05A9809C01CD000A1002311F01D
:1018A0005A9A01C05A9800E000A313D0078D013066
:1018B00019F409D031F003C0068101FF02C0459A36
:1018C00008954598089503D0F8010185CACE0C9477
:1018D000840DE7E5F1E008958A931A9B02C001E0C8
:1018E00001C000E0802F502F41E02BE0BCDE01FD65
:1018F00002C032D024C080FB96F40091790100230D
:1019000071F424D021D0002311F451E001C050E043
:101910001DD0B1DF429A20D001E00093770180937F
:101920007901D7DF01A1039501A30A3040F000E05F
:1019300001A307D006891789012B09F442988991E0
:101940000895E0EEF2E008950C94DD0841E02AE00D
:1019500030E004ED12E00895E2E0F3E004A915A9F7
:10196000E0EEF2E0068B178B00E00093780108951B
:101970000E941912A7E5B1E041E028E0E9DFE4DFC9
:10198000013021F0FD01068101FF0BC0D6DE06A566
:1019900017A5D7DF008F118F00E0FD01058F068F9F
:1019A00044C0258D368D89010F5F1F4F058F168F1F
:1019B00028353240D0F100E0058F068FC2DF008D60
:1019C000118D012B91F501E00093760100917A01D0
:1019D000002329F401E000937A015E9A04C000E03C
:1019E00000937A015E9850917A0141E023E045DF4F
:1019F000FD014788508C618C728C9FDE02A913A96F
:101A0000048B158B40A151A10AE010E00E94880FC1
:101A100044E60CD010E06ADEFD01018F128FD4DDA8
:101A2000FD01478A508E618E728E84CE50E00C94F8
:101A3000A20FBA93AA938A93FA93EA933A922A92BC
:101A40001A920A927A936A935A934A933A932A93F0
:101A50001A930A938FB70091160310911703A7E505
:101A6000B1E0202F212B31F10F3F1F4FB1F039D0C2
:101A70005C97012B91F400910403109105035B9690
:101A80000D931C935C9760DEC9F42BD01197000F67
:101A9000111F0D931C935C9711C0299800C000C0C2
:101AA00000C000C0299A1DD0015010401C930E9315
:101AB0005B9704C000E000937601BFDD8FBF099102
:101AC0001991299139914991599169917991099087
:101AD000199029903990E991F9918991A991B99139
:101AE00018955B960D911C91089503E005BD00913A
:101AF0006E00016000936E0003E806BD08954FB7C5
:101B0000F89470D04FBF08952FB7F8940DEB12E002
:101B10002FBF0895FA93EA930A927A936A935A939D
:101B20004A933A932A931A930A930FB65BD055D0EF
:101B3000018B128B238B348B448555856685778585
:101B40000417150726073707C8F10C5947D0048733
:101B500015872687378700854CD000870089039535
:101B6000008B053058F100E0008B018542D00187E1
:101B70000185002319F502853CD002870081039579
:101B800000830C33D8F000E00083048115812681A6
:101B9000378123D00483158326833783038529D097
:101BA00003870181039501830C3340F000E001833A
:101BB000028113810F5F1F4F0283138303E806BD69
:101BC0000FBE0991199129913991499159916991C2
:101BD00079910990E991F99118950F5F1F4F2F4F57
:101BE0003F4F0895EDEBF2E0018912892389348992
:101BF0000895002311F401E0089500E008950E9483
:101C00001B12B80120E04EE100E313E0F801FC965E
:101C100060D020F06015710568F009C0F8010590EA
:101C200014906015710550F00616170618F40CEDA7
:101C300015E04CC000E010E049C0432FE42FF0E075
:101C400030E0E21BF040329784F0022E1124040EA3
:101C5000131E15940794302D52E0359FF801E00DC6
:101C6000F11D37D050F3232FE9CF32E0239FF80145
:101C7000E00DF11D459054906415750518F0422F44
:101C80002DD024C0439F000D111DF80125913491E2
:101C9000421A530A23D0C801042D0529B1F0621B52
:101CA000730B8B0120E030E042E360E070E00E94C3
:101CB000B60FA20156954795040F151F261F361F14
:101CC000A2010E940910801B910B8C01E6E00C948C
:101CD00027120590149006161706089550E002E3A7
:101CE00010E00C94880F0D01D80100E0ADD0E40F96
:101CF000F51F7197C8F4EEEDF2E060817181261B4B
:101D0000370B142F152B89F0B901660F771FEEEDF5
:101D1000F2E0E60FF71F63816D9362816D932F5F91
:101D20003F4F41505040EDCF01E0D00108950E9457
:101D30001D12F801C90100E00197DC01A40FB51FD5
:101D4000919748F5A0E0B3E02D913C91821B930B55
:101D5000662319F06A9579F01FC0142F152BE1F056
:101D60001ED011962C91119721932D9121930196BC
:101D700041505040F2CF142F152B71F010D03191FB
:101D80000D933C93119721916D91622B6E93019667
:101D900041505040F0CF01E0E4E00C9429129C0146
:101DA000220F331FA2E0B3E0A20FB31F08950E94D9
:101DB00016123801A42FAA2443E00A2F7BD0C801B1
:101DC0000196E8EDF2E03ED0EA0FF51FB19778F505
:101DD00074D0662351F06A95E1F02AC048E0282DBE
:101DE00030E00AED12E05BD00197082F092BB1F724
:101DF0000FEF600E701EA77028E02A1B68D018C075
:101E0000F30151913F0148E017D001E0400E5A1C08
:101E1000019708ED12E0040D151D82309A0580F738
:101E2000A77031F0F30151914A2F06D001C0A3945D
:101E30000A2DEBE00C942212282D30E00E5F1F4F8C
:101E40000C94BD080081118121503040F9010895A2
:101E50000E9416123801842FAA2443E0082F2AD0AA
:101E6000D8011196E2EDF2E0EDDFE80FF51FB19732
:101E7000A0F423D007C048E0282D30E004ED12E0A4
:101E80000ED011970A2F0B2BB1F70FEF600E701EBB
:101E9000877028E0281B1BD001C0A394C9CF040D74
:101EA000151D0E94DD0811E0410E5A1CF30101933B
:101EB0003F010895152F0C94960F201B310B43E022
:101EC00089010E94960F28012770822E0895F30140
:101ED000008110E0422F0E94900F10E0422F0E94DC
:101EE0009C0F0083089500008895FECF01E80DBF88
:101EF00003E00EBFC2E8D4E00E943212002311F0CA
:101F00000E9451120E9484020E94730F0C94730F5E
:101F1000149F102D059F100D049F002D110D089585
:101F20004A951AF0000F111FFBCF08954A951AF039
:101F300016950795FBCF08954A951AF015950795C4
:101F4000FBCF089500241124EFE0001F111F001C97
:101F5000111C0416150610F0041A150AEA95AAF7C2
:101F6000001F111FA0010095109508952224349F91
:101F7000302D259F300D169F300D079F300D249F6B
:101F8000202D310D159F200D311D069F200D311D77
:101F9000149F102D210D321D059F100D211D321D86
:101FA000049F002D110D221D321D08954A952AF01F
:101FB000000F111F221F331FF9CF08954A952AF0F1
:101FC0003695279517950795F9CF08950024112484
:101FD0001001E0E2EA9592F0001F111F221F331F4B
:101FE000001C111C221C331C04161506260637067D
:101FF00088F3041A150A260A370AECCF001F111FAE
:10200000221F331FA001B101009510952095309536
:102010000895FF27772312F4F16015D0332312F4CB
:10202000F09509D00E94E60FF69508F404D0F695D5
:1020300008F409C0089530952095109501951F4F1B
:102040002F4F3F4F089570956095509541955F4F84
:102050006F4F7F4F0895FF27112477FB660F771F7F
:10206000089409F4771F679517F8EE27002437FBCB
:10207000220F331F089409F4331F279507F808959A
:1020800027FD0EC0EE0F001F111F221F3A953230A0
:10209000B8F7332319F427FD31E002C027FF30E001
:1020A000E03821F400FF08940EF488940F4F1F4F7E
:1020B0002F4F3F4F323038F4332319F427FD31E0EE
:1020C00002C027FF30E03F3F29F0220F000C379578
:1020D00027950895A4C0E02F012F122F232F3EE94A
:1020E000D6CF0024F8CFC1DF432F4F5748F04F31F0
:1020F00048F007FC8EC03FE72FEF1FEF0FEF08956A
:10210000332789C0322F212F102F0E2F4F51419589
:102110000E94DE0F07FE08950C941B10F901EE0FCC
:10212000FF1F37FBFF3F31F0EF2BE12BE02B8894B3
:10213000B8940895E02BE12B21F008949894B8947A
:1021400008959894889438940895FB01EE0FFF1F2A
:1021500077FBFF3F31F0EF2BE52BE42B8894B8940D
:102160000895E42BE52B69F3E8CFEFDF68F021F465
:102170003723262F8A010895372FFBCFE6DF20F083
:102180000BF008957327EAF74EC0C8DFE8F3B3F306
:1021900061F3DBDFC8F383F3A1F35DDF4017510781
:1021A0006207730731F4011411F10024E894889454
:1021B0002BC078F0332E372F732D322E262F632D20
:1021C000312E152F532D302E042F432D302C012C62
:1021D000132C371739F0669557954795F795E040DA
:1021E0007395F7CFE7FBEE0FE0E010246AF0EF0FF6
:1021F000041F151F261F60F4279517950795E7956F
:1022000008F46894339543CFEF0B040B150B260BA2
:102210003ECF302D307822271127002708953FE741
:10222000302920E8F9CF3FEF2FEFF6CF8EDFD8F33C
:10223000D1F370783727089588DFA8F3A3F3F9CF97
:102240003078372796CF6ADF70F383F3A9F37DDF09
:1022500050F3B3F3A9F3FFDE0124E8943F57E040C5
:10226000370FEF1F12F0D9F603C03A3E90F2689490
:10227000E0E00A92AA933A93AA2733242224332730
:10228000049FF001059FF00D712D731F149FF00D39
:10229000711D221C069F700D211C331C159F700D93
:1022A000211C331E249F700D211C331E169F200CF1
:1022B000311CAA1F259F200C311CA31F269F300C08
:1022C000A11D39915EF43395A6953794279477959F
:1022D000F795E79533953130BCF316C0AA2322F069
:1022E000332351F4339510C0339571F4A9910990BB
:1022F00096CFA7FD09C03A95EE0FFF1F771F221C4E
:10230000331CAA1F3230A8F7E894FE2B09F068941A
:102310002A2F8101E72FA9910990C2CE16DF10F074
:102320000BF087CF80CF11DFE9F3E0F3032E072610
:1023300070CF032E072673CFF1DEA0F37BF399F362
:1023400004DF80F39BF3A9F386DE012427FD06C09A
:10235000000F111F221F3150E040F8CF67FD06C06B
:10236000440F551F661F7150F040F8CFE894371B9B
:10237000EF0B3158EF4F2AF0EE23E9F63F3FD9F249
:1023800003C03A3EA8F26894E0E0F0E01124139410
:1023900040175107620738F0315008F46894000F75
:1023A000111F221FEE1F041B150B260BEF0B000F36
:1023B000111F221FEE1F0A9279E17A95AAF00417E5
:1023C00015072607EF0730F0041B150B260BEF0B44
:1023D000089401C08894111C221C331C001C000F9F
:1023E000111F221FEE1FE9CFF0F9E894E22BE12B39
:1023F000E02B09F068940694379427941794E79596
:1024000008F468947395B9F30990332311F0F0FF41
:1024100009C0369427941794E79508F46894339587
:102420003130BCF3012D122D232D3ACEAA929A926F
:102430008A927A926A925A924A92BA93AA939A93F9
:102440008A930895AA84998488847F806E805D80B1
:102450004C80BB81AA8199818881F0E0EC0FFD1F3F
:10246000EF01089501E008950D01D80105C0F901BB
:1024700060816D932F5F3F4FBA0141505040672BF1
:10248000B1F7D001089520E006D0E9F7089525912D
:1024900002D0E9F708952D9301501040202F212BF1
:1024A00008958EE693E0FC0105911491FC013296AB
:1024B000A591B491FC01349625913491422F432B80
:1024C00019F0F901E4DF01C0DEDF069613E08A3778
:1024D000910748F308955258482032372E30312E54
:1024E000323031372031353A31393A353400117FC5
:1024F00007040F0703D00606B20601F405053906E6
:10250000026C060000000000000000000000000057
:1025100000000000000000000000000000000000BB
:1025200000000000000000000200000000FC02FEAD
:102530000200000008030E030A03DA02D4020203B9
:10254000E002000000000000C800000000000000E1
:0B2550000057010000000000004007E1
:00000001FF
:00000001FF
