:10000000CFCC18951895B5C7189518957FCA18952F
:100010001895EBCA189554C74CC77BC71895189507
:1000200018951895189500C1814001C0804101C004
:10003000804100C1814001C0804100C1814000C1B8
:10004000814001C0804101C0804100C1814000C1A8
:10005000814001C0804100C1814001C0804101C098
:10006000804100C1814001C0804100C1814000C188
:10007000814001C0804100C1814001C0804101C078
:10008000804100C1814000C1814001C0804101C068
:10009000804100C1814001C0804100C1814000C158
:1000A000814001C0804101C0804100C1814000C148
:1000B000814001C0804100C1814001C0804101C038
:1000C000804100C1814000C1814001C0804101C028
:1000D000804100C1814001C0804100C1814000C118
:1000E000814001C0804100C1814001C0804101C008
:1000F000804100C1814001C0804100C1814000C1F8
:10010000814001C0804101C0804100C1814000C1E7
:10011000814001C0804100C1814001C0804101C0D7
:10012000804100C1814000C0C101C30302C2C606B4
:1001300007C705C5C404CC0C0DCD0FCFCE0E0ACA1F
:10014000CB0BC90908C8D81819D91BDBDA1A1EDE6F
:10015000DF1FDD1D1CDC14D4D515D71716D6D2121F
:1001600013D311D1D010F03031F133F3F23236F62F
:10017000F737F53534F43CFCFD3DFF3F3EFEFA3ADF
:100180003BFB39F9F83828E8E929EB2B2AEAEE2E6F
:100190002FEF2DEDEC2CE42425E527E7E62622E2DF
:1001A000E323E12120E0A06061A163A3A26266A62F
:1001B000A767A56564A46CACAD6DAF6F6EAEAA6A9F
:1001C0006BAB69A9A86878B8B979BB7B7ABABE7EEF
:1001D0007FBF7DBDBC7CB47475B577B7B67672B29F
:1001E000B373B17170B0509091519353529296562F
:1001F0005797559594549C5C5D9D5F9F9E5E5A9A5F
:100200009B5B99595898884849894B8B8A4A4E8EEE
:100210008F4F8D4D4C8C448485458747468682425E
:10022000438341818040000000010101010102027D
:10023000020203030303040404040505050506067E
:1002400006070708080809090A0A0B0C0C0D0E0E10
:100250000F1010111213141415161718191A1B1C4D
:100260001D1E1F20212324252628292A2C2D2F302E
:10027000323436383A3C3E414346494C4F53575B43
:100280005F64696E737980878E96000101010102B7
:10029000020203030303040404040505050606061D
:1002A0000707080809090A0A0B0B0C0D0D0E0F0FA2
:1002B000101112131415161718191A1B1C1D1F20C4
:1002C000212324252728292B2C2E3031333537386C
:1002D0003A3C3E414345484A4D5053565A5D61654C
:1002E0006A6F74797F858B929AA2ABB4BDC85EC6E3
:1002F000D5BB94B0D0A4C398A98CBC802F752A6AB2
:10030000CC5F2A564E4D3A45EA3D56377231312C74
:1003100085275E23B01F6D1C8A19FB16B614B31215
:10032000E910530FE80DA60C860B840ABC01E5000A
:100330000000850060007A1F1FB7F89401B50861BE
:1003400001BD0FE001BD1FBF0895202F07B1022B93
:1003500007B9369A3699FECF04B115B1089548D140
:1003600031D92DD6AEEBB0E0ED91FC911897A0D02D
:1003700048E150E020E630E011E009E29ED301C000
:10038000A89528D9003D174020403040C8F34424A8
:1003900087D044824582468247820DC00091E900A1
:1003A000013039F4A0D1002321F47FD14092E9003B
:1003B000CFD6DED0AED1A8950DD9E5EEF0E04081E4
:1003C000518162817381401751076207730790F76B
:1003D00001D90C591F4F2F4F3F4FE5EEF0E000833E
:1003E0001183228333835CD004811581EFE3F2E033
:1003F000008B118B55D006811781EFE3F2E0028B61
:10040000138B4ED00185002311F0C59A01C0C59809
:100410007ED71BD7D2D71BD8AAD741E029E030E03E
:1004200003E312E0BDD4013009F0B8CF2A2D30E04B
:100430003AD0008111812017310751F444D0008156
:1004400011818017910721F43AD00081B01649F04C
:100450004AD1002331F429D126D02AD04092E90094
:1004600004C00091E9000023C9F43B2DAC0160E019
:1004700070E020E01A2D00E0D4D0002379F426D1DA
:1004800001E00093E90050E066D06BD4E1E6F2E0D1
:10049000448A458A04E6068B478A5AD618D08ACF02
:1004A0009ED8F8010895FD010781F085E02F089599
:1004B000A08009D08081918102D0B0800895FD0193
:1004C0000385F485F3CFFD010185F285EFCF07DDCC
:1004D0000091B300013019F400E00093B30035D06F
:1004E0005FD4013079F450E030D03BD40FEF14E307
:1004F0002CE0015010402040E1F700C00000E0E097
:10050000F0E009950091BD0001FD1DC063D029D028
:10051000A5E7B2E00D911C915597012BA1F01BD0DE
:1005200020D056960D911C915797053620E010402B
:1005300028F004E656960D932C93579756960D91F6
:1005400046D651D04AD0E4E0D6CC41E028E030E0B5
:1005500009E312E0089541E027E030E003E312E010
:1005600008951ED4002311F0969A08959698089540
:10057000B6DCADE4B2E0ED91FC91329720F000E002
:100580000093D60004C00091D600013011F1E3DFE2
:1005900007D4002319F09B9B03C004C09B9B02C09F
:1005A00001E001C000E0802F582F14D0DAD31BD017
:1005B000023020E0120738F02FEFE1E6F2E0248B62
:1005C000258B0BD006C0C4D580FB16F4969A01C0CB
:1005D0009698B9CF41E023E0BACF0BD6EEECF0E02D
:1005E0000283138388C5EFE3F2E00685178508953B
:1005F00000E001BB04BB07BB03E207BB04E304BB91
:1006000006EE01BB00E002BB05BB08BB00EC08BB6B
:1006100009E005BB0AE102BB00E009BF05BF789411
:100620008BCE8A93022E232F1123A1F1312F3A95DD
:10063000373F80F5E8E7F0E010AF002359F504EC10
:1006400015E006A317A30CEC15E000A711A70CEF0B
:1006500015E004A315A302ED15E002A713A700E01F
:1006600004A705A70AE316E006A717A70CE616E0FD
:1006700000AB11AB0CE916E002AB13AB102D0091EF
:10068000B0005BD2802F002369F4B3D3002321F4A0
:1006900083E008C082E006C000E00093B10001E002
:1006A0000093B200082F899108958A9380E0E8E7CB
:1006B000F0E002AD013041F404A515A500301807A3
:1006C00021F0F801099501C086E0ECCF1AD0013085
:1006D00031F4AEE9B0E01AD08093B20001C086E0F8
:1006E000082FE4E008CC0DD0002339F4A0EAB0E0F4
:1006F0000DD001E00093B20003C0013009F086E0A4
:10070000EFCFEDDB80E00091B2000895ED91FC9118
:100710000994E5DB2197A8E7B0E00091B20000233F
:1007200011F006E068C08E016FD3013009F062C09D
:1007300008810A9519F00A95D9F05CC04EEA50E09C
:100740002CEA30E004EB10E09A96E0DF002309F099
:1007500051C00091B4001091B000011719F00023AE
:1007600009F048C001E00093B30002E047D342C063
:10077000FD0164A975A9FB0120812093B50001E06A
:100780000093B60040E050E003E010E016D9FD0110
:10079000E00FF11F0081002391F0021751F42EEABF
:1007A00030E08B014181F281E42F09950093B6007E
:1007B00006C04F5F5F4F4C3000E050072CF30091B4
:1007C000B4000023B9F0FD0124A935A916AD112309
:1007D00059F00091B5000068F9010083118302E02F
:1007E00010E0FD0106AB17AB46A957A90091B00078
:1007F00094968CDF00E0219674CF282E6FEF8FEF58
:1008000011C0082EF80141918F010426E02DF0E07F
:10081000EA5DFF4F44916427862FE02DF0E0EA5D0A
:10082000FE4F6491A90121503040452B51F7162FFE
:10083000082F822D089552DBD90180E02D913C9143
:1008400011972530304061F5F8015FD01380448165
:10085000042E412929F140ED041647E0140600F565
:100860008D938C93119701E001931ED043E080019A
:10087000B2D8102D177009F00395402E419214D074
:1008800060E0A0018F01F6D7002319F0A3D2802FDA
:1008900008C00D911C91040D181F1C930E9301C0EC
:1008A00083E0082FE5E026CB0D911C910F5F1F4FD1
:1008B0001C930E93089513DB2297F80180E0D90171
:1008C0000D911C9105301040D9F41FD004810023F4
:1008D000B9F403810F3F11F0002391F48983038160
:1008E0000F3F19F401E0088301C0888361E041E013
:1008F00050E08E01BFD7002321F06CD2802F01C0C1
:1009000083E0082F2296E4E0F6CA318122812F5F2E
:100910003F4F0895E3DAD90180E02D913C91119782
:100920002530304069F5F801318122812F5F3F4F3A
:1009300073814481642F472B19F1603D47E07407B0
:10094000F8F48D938C93119702E001931DD043E04E
:100950008B0141D8162F177009F00395402E419254
:1009600013D0AB018F01D5D7002319F033D2802FDC
:1009700008C00D911C91040D181F1C930E9301C00B
:1009800083E0082FE5E0B6CA0D911C910F5F1F4F61
:100990001C930E9308958A9380E0F90120813181A0
:1009A0002530304081F461E041E050E0F8013181D0
:1009B00022812F5F3F4F0D5F1F4F1FD7002321F074
:1009C00009D2802F01C083E0082F8991089586DA2B
:1009D000D90144242D913C9111972530304029F5BF
:1009E000F8013181228150E02F5F3F4F848190E0F8
:1009F000482F8823D1F08E37C0F45D935C93119714
:100A000003E018D0082F000F15D060E08F01F5D655
:100A1000002311F0DFD10AC0880F991F0D911C919E
:100A2000080F191F1C930E9302C003E0402E042DE3
:100A3000E5E060CA01930D911C910F5F1F4F1C935D
:100A40000E9308954BDAD90144242D913C911197CE
:100A50002530304029F5F801318122812F5F3F4F49
:100A600093814481842F492BD9F08D379405C0F4AC
:100A70004D924C92119704E018D0082F000F15D01A
:100A8000AC018F0196D6002311F0A4D10AC0880FC3
:100A9000991F0D911C91080F191F1C930E9302C0F2
:100AA00003E0402E042DE5E025CA01930D911C9131
:100AB0000F5F1F4F1C930E9308950FDA702F80E085
:100AC000AEEEB0E0EBEDF0E00081F181E02FA58B20
:100AD000B68B2A0102E0400E581E00E2401658066E
:100AE000B0F47093EE0002E0FD0100A381A3112396
:100AF00019F00FEF018301C08183042F052B41F012
:100B000000EF10E003DAFD0140A251A201C084E031
:100B1000082FE6E0EEC9E3D9C901EEEEF0E0A0A1AE
:100B2000B1A1AD019F010F5F1F4FF0D91196FC01DC
:100B3000A083B18300E0E4E0DEC9D0D9012FCA016F
:100B4000DB014424F89418E082D10130B9F48130FB
:100B50000BE49007A405B40510F003E20BC0880F66
:100B6000991FAA1FBB1FAC01BD0100EA1FE727E1C7
:100B700030E081D710E0CFD1013011F003E0402EFA
:100B80007894042DE5E0B6C9F89400E000931701CD
:100B9000D0D0D4D178940895F89410E000E044D1F6
:100BA000DED1F8CF98D93801D9012A0180E0F89434
:100BB0001ED004301040B0F02481358108E111E0EE
:100BC0001CDE012B79F400911801F30100830FD092
:100BD00003501040F2010083118309E111E00D93ED
:100BE0001C9301C085E07894082FE8E080C9E0E11B
:100BF000F1E004811581089572D9602F80E0F894A6
:100C0000A0E1B1E000911701013019F52150304009
:100C10002D933C93119701E0FD0102838383ED91B5
:100C2000F32F1197608381D0040F151F0283138364
:100C3000228133810D911C911197DFDD0FD000834C
:100C40000DD0108301E00093160111E000E0ECD01C
:100C500001C085E07894082FE4E04DC9FD01428190
:100C600053819A012F5F3F4F22833383FA01E85E5D
:100C7000FE4F089534D921978E0117D1E0E1F1E0BC
:100C800007810023E9F00A9529F00A9569F00A9591
:100C9000B9F017C000E00483058316D0D801A85E20
:100CA000BE4F2C9302E00BC004811581113030F44B
:100CB0000BD0F801E85EFE4F208302C003E00783FB
:100CC0003DD100E02196C8CF04811581C80101966D
:100CD000848395832881089502D980E0A0E1B1E062
:100CE00000911601002319F00A9519F01DC021D0BA
:100CF0001BC01BD0012B89F0ED91FC911197008155
:100D0000D1D00D911C910F5F1F4F1C930E930DD0EE
:100D1000015010400283138307C003E06FD0802F7F
:100D200008D000E00093160196CFFD0102811381E7
:100D3000089510E001E078C08A9380E000911701E7
:100D4000002319F0025019F005C000E001C001E0D5
:100D500055D0802F04D101E000931701082F89910D
:100D60000895F801042E33D0302F330F330F330F93
:100D7000231BE00FF11F60817181402D25D00150B0
:100D80001040422F22D60095109560237123052F25
:100D900010E0422F1AD6062B712B00837183089521
:100DA000F801542F14D0602FE00FF11F0081118142
:100DB000422F660F660F660F461B0DD6202F452F5C
:100DC00003D00A950223089501E010E0FEC543E038
:100DD000890101C6002329F00A9529F0065029F05F
:100DE00006C000E0089502E0089506E0089504E0DA
:100DF000089500E00093190201E0089511E01093B6
:100E0000190200931802F8CF6AD820E0E8E1F2E076
:100E10003181332331F02081D8012C9300E001830C
:100E200021E0022FE4E067C82AB128642AB9002330
:100E30000AB111F0006901C00F760AB9112329F037
:100E40000AB108620AB9C09A08955598089548D819
:100E5000042E912FA22F80E044E0002D152F9B013E
:100E6000FAD5A801B90100E012E12AE730E003D683
:100E70000A9509B9AA9521F0AA9519F480E201C052
:100E800080E3975021F09A9519F4866001C0846040
:100E9000806880BD10E000E0C7DFB89AC09801E02C
:100EA000E3E02AC80CB901E008952CB1F8012083D1
:100EB000FACF0CD0E091A800F091A90018D01895B5
:100EC00005D0E091A600F091A700F8CF8A93FA939D
:100ED000EA933A922A921A920A927A936A935A93CE
:100EE0004A933A932A931A930A938FB708950995D0
:100EF0008FBF09911991299139914991599169911E
:100F000079910990199029903990E991F9918991F5
:100F10000895C098189520E030E044E254EF60E076
:100F200070E079D540E25EE4A6D5EAE1F2E0008324
:100F3000118300E005BD13D001E0089500E004BD79
:100F4000EAE1F2E000811181012B29F009B7006884
:100F500009BF008103BD05B5056005BD089505B550
:100F60000A7F05BD09B70F7709BF08B7006808BF3A
:100F700008958A93FA93EA933A922A921A920A92DD
:100F80007A936A935A934A933A932A931A930A93B9
:100F90008FB7E091AA00F091AB0009958FBF09913E
:100FA00019912991399149915991699179910990B2
:100FB000199029903990E991F991899118958FD7D5
:100FC00000E00EBD0FBD08E00EBD09B7006109BF0E
:100FD0008BD004E610E0EED1018F128F0789087FD5
:100FE0000360078B00E4008F16B905E806B900E43A
:100FF00007B9AFE3B2E004E6FD01048F158F05E603
:10100000068F178F24E01ED1268317833BE41487B5
:1010100035871087118721E02287138728E02687EC
:10102000178728EC22831383148B158B20EA248FD7
:10103000158F28E7228F138F21E0268F178FB699FF
:1010400002C020EA01C028E720A311A32AE026A7B6
:1010500017A7FD0126853785F5D020AB31AB28E0F9
:1010600022AB13AB2EE124AB15ABFD01268B178B06
:101070000AE0008F118F33D0B2D2F80104811581BC
:10108000FD01008B118BABD2F80106811781FD01A8
:10109000028B138B06E059D90D931C9311971FD027
:1010A00050E041E02AE030D251E013D068D00E7F0A
:1010B00006830FD075DE002311F0979A01C0979830
:1010C00057D011F0959A01C09598AA9A41D0E4E0C2
:1010D00012C741E029E030E009E312E0089506D1AB
:1010E000FD010287138708950EB5087F0EBD09B76D
:1010F0000F7E09BF0895F3D6959AA7EBB0E0A2D072
:1011000002811381FD01038F148F98D039F4FD0102
:10111000038D148D000F111F038F148F00E00DBD80
:101120000CBDFD01018D128D1BBD0ABD0091CE00CD
:1011300007701EB5102B1EBD09B7006109BF51E035
:1011400041E020E00DD1FD01068102600683BFCFA2
:1011500000E030D1038F048FC7DF0AD011F4CFD065
:10116000959850E041E020E009D00D7F0683089576
:1011700041E02AE0B0DF14DE0023089558D1F1DD0C
:10118000E7EBF0E006810895053020E0120718F43F
:1011900001E010E006C0053F23E0120710F004EF65
:1011A00013E049D040E050E060E87FEB40D540E0FC
:1011B00050EC6CE774E412D640E050E066EC72E468
:1011C00094D540E050E060E87FE331D5E0D43AD0F8
:1011D00020A131A1283710E03040F80119F4EB5D6F
:1011E000FD4F02C0E757FD4F04911CD106871787BA
:1011F000089571D6C80122D011F4880F991F00916B
:10120000CF0010E018D0280139011CD04281538151
:101210008C01D3D34CE350E0EAD30DD0A201B3014B
:1012200064D5A801B90100E014E224EF3AE4D6D570
:10123000AED4E8E05CC620E030E0A7C44ADFB0DD11
:1012400001300895E1E6F2E0089549D68FE392E097
:10125000ADEDB0E00091E4000A9581F1055009F18F
:101260000A95F9F50091E300102F1A951093E30009
:10127000002349F007E069D82D913C91200F311FE0
:101280003C932E930CC000E40093E30098D1119797
:1012900021D2FC010283138300E00D930C9306E03E
:1012A0001EC006E052D8FD012281338121D0228365
:1012B0003383FC012083318301E011C017D0FC018E
:1012C0000287138713D0FD012481358111D0248337
:1012D00035838901FC012287338756DF07E00093BD
:1012E000E40007B1087F07B90AD0F1CE01E02DC8AC
:1012F000021B130B44E075D3200F311F08950FEC30
:1013000017E001501040E9F700C000000895B69BB7
:1013100002C008E701C000EA10E094DF00A311A3B7
:1013200050E0B69951E041E026E01AD0839904C01C
:1013300051E041E029E012C050E041E029E014D042
:10134000B79951E041E025E00FD0849951E041E0A8
:1013500027E00AD0989951E041E028E068D001CD1B
:1013600030E003E312E0FDCCFBDF50E00895AA99E2
:1013700006C01CD011F0929A0BC0929809C01AD0E6
:1013800000A1002311F0929A01C0929800E000A3FE
:1013900011D0078D013019F409D031F003C0068156
:1013A00001FF02C0AD9A0895AD98089518D1F801D3
:1013B0000185E2CEE7EBF0E008958A93B29B02C08C
:1013C00001E001C000E0802F502F41E02BE0D6DE8D
:1013D00001FD02C030D024C080FB96F40091D900FA
:1013E000002371F422D0DCDC002311F451E001C0B1
:1013F00050E01BD0B6DCAA9A1ED001E00093D700C3
:101400008093D900D7DF01A1039501A30A3040F0F2
:1014100000E001A307D006891789012B09F4AA98D7
:1014200089910895EFE3F2E0089541E02AE030E089
:1014300003E312E00895E1E6F2E004A915A9EFE361
:10144000F2E0068B178B00E00093D800089543D597
:10145000A7EBB0E041E028E0EADFA2DC013021F0B8
:10146000FD01068101FF0BC0EDDE06A517A5DADF41
:10147000008F118F00E0FD01058F068F44C0258D80
:10148000368D89010F5F1F4F058F168F283532402B
:10149000D0F100E0058F068FC5DF008D118D012B87
:1014A00091F501E00093D6000091DA00002329F4C1
:1014B00001E00093DA00969A04C000E00093DA009D
:1014C00096985091DA0041E023E01ED0FD01478854
:1014D000508C618C728CB6DE02A913A9048B158B1B
:1014E00040A151A10AE010E068D244E650E07FD26A
:1014F00010E07FDEFD01018F128FFDDDFD01478AC7
:10150000508E618E728E95CEE6DD2BCCBA93AA9367
:101510008A93FA93EA933A922A921A920A927A93C7
:101520006A935A934A933A932A931A930A938FB7DA
:101530000091750210917602A7EBB0E0202F212BCD
:1015400031F10F3F1F4FB1F039D05C97012B91F46F
:1015500000916302109164025B960D931C935C975B
:101560006DDEC9F42BD01197000F111F0D931C9342
:101570005C9711C0C19800C000C000C000C0C19AF3
:101580001DD0015010401C930E935B9704C000E0E7
:101590000093D600DDDD8FBF099119912991399112
:1015A00049915991699179910990199029903990AF
:1015B000E991F9918991A991B99118955B960D914D
:1015C0001C91089503E003BF09B7016009BF03E858
:1015D00002BF08954FB7F89470D04FBF08952FB74A
:1015E000F8940CE112E02FBF0895FA93EA930A925F
:1015F0007A936A935A934A933A932A931A930A9343
:101600000FB65BD055D0018B128B238B348B448566
:101610005585668577850417150726073707C8F1AE
:101620000C5947D0048715872687378700854CD00B
:10163000008700890395008B053058F100E0008B8E
:10164000018542D001870185002319F502853CD030
:1016500002870081039500830C33D8F000E00083FB
:10166000048115812681378123D004831583268345
:101670003783038529D003870181039501830C33C8
:1016800040F000E00183028113810F5F1F4F02834E
:10169000138303E802BF0FBE099119912991399173
:1016A00049915991699179910990E991F991189528
:1016B0000F5F1F4F2F4F3F4F0895ECE1F2E001897C
:1016C0001289238934890895002311F401E00895D3
:1016D00000E0089502D4B80120E04EE10EEE12E0E1
:1016E000F801FC965DD020F06015710568F009C026
:1016F000F801059014906015710550F00616170654
:1017000018F40CED15E04AC000E010E047C0432F8C
:10171000E42FF0E030E0E21BF040329784F0022E3C
:101720001124040E131E15940794302D52E0359F9A
:10173000F801E00DF11D34D050F3232FE9CF32E052
:10174000239FF801E00DF11D459054906415750537
:1017500018F0422F2AD022C0439F000D111DF8011E
:1017600025913491421A530A20D0C801042D05292D
:10177000A1F0621B730B8B0120E030E042E360E0DC
:1017800070E049D1A20156954795040F151F261FF9
:10179000361FA20193D1801B910B8C01E6E0A9C3F7
:1017A0000590149006161706089550E002E310E025
:1017B00004C195D3D80100E0A8D0E40FF51F7197BC
:1017C000C8F4EDE3F2E060817181261B370B142F22
:1017D000152B89F0B901660F771FEDE3F2E0E60FF4
:1017E000F71F63816D9362816D932F5F3F4F41506F
:1017F0005040EDCF01E0E4E07EC371D3F801C901B0
:1018000000E00197DC01A40FB51F919748F5AFE503
:10181000B2E02D913C91821B930B662319F06A95DF
:1018200079F01FC0142F152BE1F01CD011962C91CC
:10183000119721932D912193019641505040F2CF61
:10184000142F152B71F00ED031910D933C931197FD
:1018500021916D91622B6E93019641505040F0CFD3
:1018600001E0C9CF9C01220F331FA1E6B2E0A20F15
:10187000B31F08952DD33801A42FAA2443E00A2FC3
:10188000152FA9D0C8010196E7E3F2E03CD0EA0F9A
:10189000F51FB19778F56ED0662351F06A95E1F0A7
:1018A0002AC048E0282D30E009E312E059D0019722
:1018B000082F092BB1F70FEF600E701EA77028E0FC
:1018C0002A1B61D018C0F30151913F0148E016D0A6
:1018D00001E0400E5A1C019707E312E0040D151DAC
:1018E00082309A0580F7A77031F0F30151914A2FA9
:1018F00005D001C0A3940A2DEBE0F6C2282D30E0FC
:101900000E5F1F4F2ECA0081118121503040F90116
:101910000895DED23801842FAA2443E0082F152F22
:101920005AD0D8011196E1E3F2E0EDDFE80FF51FA0
:10193000B197A0F41FD007C048E0282D30E003E3A2
:1019400012E00ED011970A2F0B2BB1F70FEF600E9C
:10195000701E877028E0281B16D001C0A394CBCF3F
:10196000040D151D1DDA11E0410E5A1CF3010193FF
:101970003F010895201B310B43E089012CD0280141
:101980002770822E0895F301008110E0422F1DD0B0
:1019900010E0422F26D00083089500008895FECFE6
:1019A00000EE0DBF02E00EBFC1EED3E0ADD20023CA
:1019B00009F0C9D2D4D4F1DFF0CF149F102D059FC8
:1019C000100D049F002D110D08954A951AF0000F77
:1019D000111FFBCF08954A951AF016950795FBCF76
:1019E00008954A951AF015950795FBCF08950024A0
:1019F0001124EFE0001F111F001C111C0416150616
:101A000010F0041A150AEA95AAF7001F111FA00189
:101A10000095109508952224349F302D259F300D78
:101A2000169F300D079F300D249F202D310D159FDF
:101A3000200D311D069F200D311D149F102D210DED
:101A4000321D059F100D211D321D049F002D110D0B
:101A5000221D321D08954A952AF0000F111F221FE2
:101A6000331FF9CF08954A952AF036952795179593
:101A70000795F9CF0895002411241001E0E2EA95BA
:101A800092F0001F111F221F331F001C111C221C6B
:101A9000331C041615062606370688F3041A150AA1
:101AA000260A370AECCF001F111F221F331FA00187
:101AB000B10100951095209530950895FF27772363
:101AC00012F4F16014D0332312F4F09508D0D3DF70
:101AD000F69508F404D0F69508F409C008953095F9
:101AE0002095109501951F4F2F4F3F4F08957095EA
:101AF0006095509541955F4F6F4F7F4F0895FF2739
:101B0000112477FB660F771F089409F4771F6795F8
:101B100017F8EE27002437FB220F331F089409F42F
:101B2000331F279507F8089527FD0EC0EE0F001FFD
:101B3000111F221F3A953230B8F7332319F427FDCD
:101B400031E002C027FF30E0E03821F400FF0894C4
:101B50000EF488940F4F1F4F2F4F3F4F323038F401
:101B6000332319F427FD31E002C027FF30E03F3F67
:101B700029F0220F000C379527950895A2C0E02F79
:101B8000012F122F232F3EE9D6CF0024F8CFC1DF3B
:101B9000432F4F5748F04F3148F007FC8CC03FE7C8
:101BA0002FEF1FEF0FEF0895332787C0322F212F1C
:101BB000102F0E2F4F51419556DF07FE08958FCFFE
:101BC000F901EE0FFF1F37FBFF3F31F0EF2BE12B49
:101BD000E02B8894B8940895E02BE12B21F0089431
:101BE0009894B89408959894889438940895FB0133
:101BF000EE0FFF1F77FBFF3F31F0EF2BE52BE42BC0
:101C00008894B8940895E42BE52B69F3E8CFEFDFCF
:101C100068F021F43723262F8A010895372FFBCF50
:101C2000E6DF20F00BF008957327EAF74EC0C8DF17
:101C3000E8F3B3F361F3DBDFC8F383F3A1F35FDF12
:101C4000401751076207730731F4011411F10024A2
:101C5000E89488942BC078F0332E372F732D322ED2
:101C6000262F632D312E152F532D302E042F432D6B
:101C7000302C012C132C371739F066955795479562
:101C8000F795E0407395F7CFE7FBEE0FE0E0102407
:101C90006AF0EF0F041F151F261F60F42795179594
:101CA0000795E79508F46894339545CFEF0B040B3F
:101CB000150B260B40CF302D307822271127002717
:101CC00008953FE7302920E8F9CF3FEF2FEFF6CF17
:101CD0008EDFD8F3D1F370783727089588DFA8F323
:101CE000A3F3F9CF3078372796CF6ADF70F383F309
:101CF000A9F37DDF50F3B3F3A9F301DF0124E894E6
:101D00003F57E040370FEF1F12F0D9F603C03A3EBD
:101D100090F26894E0E00A92AA933A93AA273324B7
:101D200022243327049FF001059FF00D712D731FAE
:101D3000149FF00D711D221C069F700D211C331C79
:101D4000159F700D211C331E249F700D211C331E06
:101D5000169F200C311CAA1F259F200C311CA31F8D
:101D6000269F300CA11D39915EF43395A6953794CA
:101D700027947795F795E79533953130BCF316C0E6
:101D8000AA2322F0332351F4339510C0339571F414
:101D9000A991099096CFA7FD09C03A95EE0FFF1FB4
:101DA000771F221C331CAA1F3230A8F7E894FE2BA1
:101DB00009F068942A2F8101E72FA9910990C4CED8
:101DC00016DF10F00BF087CF80CF11DFE9F3E0F3DF
:101DD000032E072670CF032E072673CFF1DEA0F364
:101DE0007BF399F304DF80F39BF3A9F388DE0124EE
:101DF00027FD06C0000F111F221F3150E040F8CF11
:101E000067FD06C0440F551F661F7150F040F8CFA4
:101E1000E894371BEF0B3158EF4F2AF0EE23E9F629
:101E20003F3FD9F203C03A3EA8F26894E0E0F0E008
:101E30001124139440175107620738F0315008F409
:101E40006894000F111F221FEE1F041B150B260B99
:101E5000EF0B000F111F221FEE1F0A9279E17A95F6
:101E6000AAF0041715072607EF0730F0041B150B1F
:101E7000260BEF0B089401C08894111C221C331C04
:101E8000001C000F111F221FEE1FE9CFF0F9E8948C
:101E9000E22BE12BE02B09F0689406943794279409
:101EA0001794E79508F468947395B9F30990332370
:101EB00011F0F0FF09C0369427941794E79508F4C1
:101EC000689433953130BCF3012D122D232D3CCE77
:101ED000AA929A928A927A926A925A924A92BA9361
:101EE000AA939A938A930895AA84998488847F8078
:101EF0006E805D804C80BB81AA8199818881F0E0F1
:101F0000EC0FFD1FEF01089501E00895E8DFD8010F
:101F100005C0F90160816D932F5F3F4FBA014150B9
:101F20005040672BB1F7E4E0E6CF20E006D0E9F7B8
:101F30000895259102D0E9F708952D93015010409E
:101F4000202F212B08958CE293E0FC010591149140
:101F5000FC013296A591B491FC01349625913491FF
:101F6000422F432B19F0F901E4DF01C0DEDF0696B2
:101F700013E08833910748F30895525848203234CB
:101F80002E30312E323031372030383A33383A3132
:101F90003100118B0504220503E70406CB04011B65
:101FA00004055B04028A0400000000000000000039
:101FB0000000000000000000000000000000000021
:101FC000000000000000000000000000020000000F
:101FD000005B025D0200000067026D0269023902C7
:101FE000330261023F02000000000000C800000050
:0F1FF0000000000000B7000000000000004007E4
:00000001FF
:00000001FF
