:100000000C94160F18951895189518950C949B0933
:1000100018951895189518950C94BB0C189518956B
:10002000189518950C942A0D189518950C9440095C
:100030000C9439090C946909189518951895189518
:100040001895189518951895189518951895189548
:100050001895189500C1814001C0804101C08041C0
:1000600000C1814001C0804100C1814000C1814088
:1000700001C0804101C0804100C1814000C1814078
:1000800001C0804100C1814001C0804101C0804168
:1000900000C1814001C0804100C1814000C1814058
:1000A00001C0804100C1814001C0804101C0804148
:1000B00000C1814000C1814001C0804101C0804138
:1000C00000C1814001C0804100C1814000C1814028
:1000D00001C0804101C0804100C1814000C1814018
:1000E00001C0804100C1814001C0804101C0804108
:1000F00000C1814000C1814001C0804101C08041F8
:1001000000C1814001C0804100C1814000C18140E7
:1001100001C0804100C1814001C0804101C08041D7
:1001200000C1814001C0804100C1814000C18140C7
:1001300001C0804101C0804100C1814000C18140B7
:1001400001C0804100C1814001C0804101C08041A7
:1001500000C1814000C0C101C30302C2C60607C777
:1001600005C5C404CC0C0DCD0FCFCE0E0ACACB0BE7
:10017000C90908C8D81819D91BDBDA1A1EDEDF1F17
:10018000DD1D1CDC14D4D515D71716D6D21213D307
:1001900011D1D010F03031F133F3F23236F6F737B7
:1001A000F53534F43CFCFD3DFF3F3EFEFA3A3BFBA7
:1001B00039F9F83828E8E929EB2B2AEAEE2E2FEF57
:1001C0002DEDEC2CE42425E527E7E62622E2E323C7
:1001D000E12120E0A06061A163A3A26266A6A767F7
:1001E000A56564A46CACAD6DAF6F6EAEAA6A6BAB67
:1001F00069A9A86878B8B979BB7B7ABABE7E7FBF97
:100200007DBDBC7CB47475B577B7B67672B2B37386
:10021000B17170B050909151935352929656579736
:10022000559594549C5C5D9D5F9F9E5E5A9A9B5B26
:1002300099595898884849894B8B8A4A4E8E8F4FD6
:100240008D4D4C8C44848545874746868242438346
:10025000418180400000000101010101020202020F
:100260000303030304040404050505050606060745
:100270000708080809090A0A0B0C0C0D0E0E0F10CE
:1002800010111213141415161718191A1B1C1D1E01
:100290001F20212324252628292A2C2D2F303234D3
:1002A00036383A3C3E414346494C4F53575B5F64B6
:1002B000696E737980878E96000101010102020246
:1002C00003030303040404040505050606060707E3
:1002D000080809090A0A0B0B0C0D0D0E0F0F10115F
:1002E00012131415161718191A1B1C1D1F20212371
:1002F00024252728292B2C2E3031333537383A3C0A
:100300003E414345484A4D5053565A5D61656A6FB8
:1003100074797F858B929AA2ABB4BDC85EC6D5BBFB
:1003200094B0D0A4C398A98CBC802F752A6ACC5FE6
:100330002A564E4D3A45EA3D56377231312C8527C3
:100340005E23B01F6D1C8A19FB16B614B312E91098
:10035000530FE80DA60C860B840ABD01E5000000D2
:10036000850060001624A1D0123010F021E09ED04C
:10037000E199FECF1FBB0EBB01E00CBB0DB308958E
:10038000003032E0130708F018C03FB7F894E19945
:10039000FECFF0DF0227102F122339F02F3F19F084
:1003A0002DBB04E006C004E104C0002321F02DBBF6
:1003B00004E20CBBE19A3FBF089501E00093E50021
:1003C00008950E94BD11C80126D0A02F01968C016E
:1003D00022D0B02F8D01E4E00C94C9110E94BD1110
:1003E000D801932F30D0292F11968D012CD0F3CF27
:1003F0000E94BB11280110D0802F82010DD0902FB8
:10040000820109D0A02F20D006D0B02F8C019D01F1
:10041000E6E00C94C71138C037D011E0410E10E06F
:10042000511E08950E94BB112801952FDB01242F36
:100430000ED0292F82010BD02A2F820104D02B2F1E
:1004400003D001D0E5CF09C003D08201089505D0C3
:1004500001E0400E00E0501E089530E03093E500CA
:10046000003032E0130708F0A8CF3FB747B740FD90
:10047000FDCFE199FECFF8941FBB0EBB2DBBE29AD6
:10048000E19A3FBF7894089510D0003022E012071F
:1004900010F021E00BD02FB7E199FECFF8941FBBED
:1004A0000EBBE09A0DB32FBFEDCF20E02093E50007
:1004B00008951FB7F89401B5086001BD0FE001BDB4
:1004C0001FBF0895202F07B1022B07B9369A36991E
:1004D000FECF04B115B108950FEF13E00E94DC0ABE
:1004E000C8D10E94170D0FEE13E04FD20A3A09F05F
:1004F000DAD10E94C10907EB402E00E0502EAEEB8E
:10050000B0E0ED91FC918080E7EBF0E0DAD048E1DB
:1005100050E020E630E011E009E20E94350701C01A
:10052000A895C9D0003D174020403040C8F3A89599
:10053000C2D0E6EEF0E040815181628173814017C4
:1005400051076207730708F0B0C0B5D00C591F4FB0
:100550002F4F3F4FE6EEF0E0008311832283338379
:10056000ACD0048115812CD1008B118BA6D00681D3
:10057000178126D1028B138BA0D084819581A6810F
:10058000B781FDD180179107A207B30731F095D04D
:100590004481558166817781EED18FD0018500231A
:1005A00011F0C59A01C0C5980E94B40B0E944C0B73
:1005B0000E940E0C0E945A0C0E94E60B41E029E0BA
:1005C00054D1013009F062C0282D30E0F2010781DA
:1005D000F085E02F008111812017310769F4F201C5
:1005E0000185F285E02F008111816016710621F4EA
:1005F00070D00081901629F10E942C05002309F586
:100600000E940D05D2011796ED91FC918080F201B8
:1006100058D0B9D1081519F0282D05E049D099D145
:100620000615170519F093010BE099D10DE0ACD137
:10063000091519F0292D0DE03BD000E00093EA00E8
:1006400004C00091EA000023F9F4392DA30160E011
:1006500070E020E0182D00E00E94C7040023A1F400
:100660000E941E0501E00093EA00A5D004E312E019
:100670000E94A408E2E6F2E000E010E0048B058BA3
:1006800004E6068B178BE5D029D00FC00091EA0055
:10069000013051F40E942C05002331F40E940D0515
:1006A00000E00093EA00D5D08ED00E9443053FCFF2
:1006B00010E00C94C0010C941F0D0E94240DF80151
:1006C00008950185F285E02F6080718002D09080CE
:1006D0000895F2010385F485E02F0895BA93AA9353
:1006E0000091B300013019F400E00093B30041E041
:1006F00028E059D079F450E041E028E0ACD00FEF89
:1007000014E32CE0015010402040E1F700C000004D
:100710000E94000041E027E046D059F44CD09CD024
:1007200038D02FEF0FEE13E00E94C00132D00E94AC
:1007300000000091BD0001FD29C041E023E036D05A
:10074000002311F0969A01C09698A6E7B2E00D91A9
:100750001C915597012BD1F083D011F0969A01C0CE
:10076000969856960D911C915797053620E01040AB
:1007700028F004E656960D932C93579756960D91B4
:100780000E94080B1DD0068517855BD0A991B991F1
:1007900008950FEF10E722E0015010402040E1F7EC
:1007A00000C00000089502D00130089530E00AE34F
:1007B00012E00C94C40850E041E027E030E00895D6
:1007C000E0E4F2E008959A938A93FADF86859785AC
:1007D0008230904020F000E00093D60004C00091E9
:1007E000D600013059F13CD019F09B9B03C004C0E6
:1007F0009B9B02C001E001C000E0802F582F41E028
:1008000023E029D0DDDF2285338506851785023078
:1008100040E0140750F0223E304080F02FEFE2E637
:10082000F2E0248B258B0DD009C02B37304030F4FB
:1008300010D080FB16F4969A01C0969889919991F0
:1008400008950E941A0BEEECF0E0028313830C94DF
:10085000900A0C94C10A30E00AE312E00C94A40858
:1008600041E027E002D00023089530E004E312E0E5
:10087000A0CF00E001BB04BB07BB03E207BB04E35E
:1008800004BB06EE01BB00E002BB05BB08BB00ECED
:1008900008BB09E005BB0AE102BB00E009BF05BFD8
:1008A00078940C94590203C024E005E05BD06BD02F
:1008B0000430D1F74ED000301B4441F020E03BE43F
:1008C0000BE04BD0F7CF20E00DE04CD00DE05CD03A
:1008D0000023C9F700E158D0003A39F020EA00E1DE
:1008E00041D0F8CF21E001E13DD001E14DD0013010
:1008F000C9F703E149D00A3039F02AE003E132D0E8
:10090000F8CF2AE004E12ED004E13ED00A30C9F746
:1009100005E13AD0083049F028E030E005E11DD08B
:10092000F7CF2EE130E007E118D007E12DD00E31EE
:10093000C1F725D0012B022B032B39F040E050E00A
:1009400060E070E018D00FD0F4CF2AEA0FEE13E089
:10095000B0CE0BE010E00C94E10101D004C010E037
:100960000C94EE01A5DE0FEC17E001501040E9F702
:1009700000C00000089509E110E00C94120209E1A2
:1009800010E00C94F80105E010E00C94B3018A9398
:10099000022E232F1123B1F1312F3A95373F90F5D5
:1009A000E8E7F0E010AF002369F507EA17E006A3D7
:1009B00017A300EB17E000A711A703EE17E004A3AD
:1009C00015A306EB17E002A713A700E004A705A7ED
:1009D00005E218E006A717A70BE518E000AB11AB7E
:1009E0000DE818E002AB13AB102D0091B0000E948F
:1009F0007B07802F002371F40E94EF08002321F46D
:100A000083E008C082E006C000E00093B10001E08E
:100A10000093B200082F899108958A9380E0E8E757
:100A2000F0E002AD013041F404A515A5003018072F
:100A300021F0F801099501C086E0ECCF1BD0013010
:100A400031F4AEE9B0E01CD08093B20001C086E082
:100A5000082FE4E00C94C9110DD0002339F4A0EA6A
:100A6000B0E00ED001E00093B20003C0013009F005
:100A700086E0EECF0E94BD1180E00091B2000895A3
:100A8000ED91FC910994BA93AA932197A8E7B0E05D
:100A90000091B200002311F006E06BC08E010E94AD
:100AA000FA08013009F064C008810A9519F00A9526
:100AB000E1F05EC04EEA50E02CEA30E004EB10E0DA
:100AC0009A96DEDF002309F053C00091B400109124
:100AD000B000011719F0002309F04AC001E00093AB
:100AE000B30002E00E94F40843C0FD0164A975A9A7
:100AF000FB0120812093B50001E00093B60040E0A7
:100B000050E003E010E00E94280FFD01E00FF11F0C
:100B10000081002391F0021751F42EEA30E08B019E
:100B20004181F281E42F09950093B60006C04F5F22
:100B30005F4F4C3000E0500724F30091B4000023D5
:100B4000B9F0FD0124A935A916AD112359F0009182
:100B5000B5000068F9010083118302E010E0FD0197
:100B600006AB17AB46A957A90091B000949688DF51
:100B700000E02196A991B9910895282E6FEF8FEF8B
:100B800011C0082EF80141918F010426E02DF0E0FC
:100B9000EC5AFF4F44916427862FE02DF0E0EC5A89
:100BA000FE4F6491A90121503040452B51F7162F7B
:100BB000082F822D08950E94BC11D90180E02D914B
:100BC0003C9111972530304079F5F80167D01380BA
:100BD0004481042E412941F140ED041647E01406FA
:100BE00018F58D938C93119701E0019322D043E087
:100BF00080010E94360F102D177009F00395402ECA
:100C0000419217D060E0A0018F010E94770E00236F
:100C100021F00E94E008802F08C00D911C91040D66
:100C2000181F1C930E9301C083E0082FE5E00C947D
:100C3000C8110D911C910F5F1F4F1C930E930895C7
:100C40000E94BD112297F80180E0D9010D911C91FD
:100C500005301040E9F422D004810023C9F4038157
:100C60000F3F11F00023A1F4898303810F3F19F492
:100C700001E0088301C0888361E041E050E08E011B
:100C80000E94770E002329F00E94E008802F01C007
:100C900083E0082F2296E4E00C94C911318122816F
:100CA0002F5F3F4F08950E94BC11D90180E02D9124
:100CB0003C9111972530304081F5F8013181228136
:100CC0002F5F3F4F73814481642F472B31F1603D8B
:100CD00047E0740710F58D938C93119702E0019310
:100CE00021D043E08B010E94360F162F177009F0B8
:100CF0000395402E419216D0AB018F010E94C80E81
:100D0000002321F00E94E008802F08C00D911C9163
:100D1000040D181F1C930E9301C083E0082FE5E01B
:100D20000C94C8110D911C910F5F1F4F1C930E93D3
:100D300008958A9380E0F901208131812530304087
:100D400091F461E041E050E0F801318122812F5FB0
:100D50003F4F0D5F1F4F0E94370E002329F00E9466
:100D6000E008802F01C083E0082F899108950E9438
:100D7000BC11D90144242D913C911197253030406C
:100D800039F5F8013181228150E02F5F3F4F848196
:100D900090E0482F8823E1F08E37D0F45D935C9388
:100DA000119703E01BD0082F000F18D060E08F01CF
:100DB0000E94370E002319F00E94E0080AC0880F35
:100DC000991F0D911C91080F191F1C930E9302C0BF
:100DD00003E0402E042DE5E00C94C81101930D9121
:100DE0001C910F5F1F4F1C930E9308950E94BC111E
:100DF000D90144242D913C9111972530304039F58B
:100E0000F801318122812F5F3F4F93814481842FEC
:100E1000492BE9F08D379405D0F44D924C921197FF
:100E200004E01BD0082F000F18D0AC018F010E94E6
:100E3000130E002319F00E94E0080AC0880F991FC2
:100E40000D911C91080F191F1C930E9302C003E013
:100E5000402E042DE5E00C94C81101930D911C91D6
:100E60000F5F1F4F1C930E9308950E94BB11702FAC
:100E700080E0AFEEB0E0EBEDF0E00081F181E02F3B
:100E8000A58BB68B2A0102E0400E581E00E24016E8
:100E90005806B8F47093EF0002E0FD0100A381A3AF
:100EA000112319F00FEF018301C08183042F052B5B
:100EB00049F001EF10E00E94D411FD0140A251A2BF
:100EC00001C084E0082FE6E00C94C7110E94BD1118
:100ED000C901EFEEF0E0A0A1B1A1AD019F010F5F4C
:100EE0001F4F0E94D4111196FC01A083B18300E032
:100EF000E4E00C94C9110E94BC11012FCA01DB016E
:100F00004424F89418E00E941D090130C9F481308E
:100F10000BE49007A405B40510F003E20CC0880FA1
:100F2000991FAA1FBB1FAC01BD0100EA1FE727E103
:100F300030E00E94860F10E00E946B09013011F032
:100F400003E0402E7894042DE5E00C94C811F89449
:100F500000E000931801DED00E9480097894089583
:100F6000F89410E06FD00E949109F8CF0E94B91157
:100F70003801D9012A0180E0F89420D004301040D3
:100F8000B8F02481358109E111E00E94BD05012BF3
:100F900079F400911901F301008310D0035010403F
:100FA000F201008311830AE111E00D931C9301C04B
:100FB00085E07894082FE8E00C94C511E1E1F1E0B8
:100FC0000481158108956DD0602F80E0F894A1E12F
:100FD000B1E000911801013019F5215030402D93F6
:100FE0003C93119701E0FD0102838383ED91F32F80
:100FF000119760838BD0040F151F02831383228106
:1010000033810D911C9111970E94BD050FD0008373
:101010000DD0108301E00093170111E013D001C03F
:1010200085E07894082FE4E00C94C911FD01428119
:1010300053819A012F5F3F4F22833383FA01E75E8A
:10104000FE4F089500E00C940A092BD021978E01E1
:101050000E943509E1E1F1E007810023E9F00A95FA
:1010600029F00A9569F00A95B9F018C000E00483E8
:10107000058319D0D801A75EBE4F2C9302E00BC0A8
:1010800004811581113030F40ED0F801E75EFE4F77
:10109000208302C003E007830E94800900E02196BC
:1010A000C2CF0C94BD1104811581C80101968483BF
:1010B000958328810895F5DF80E0A1E1B1E00091FA
:1010C0001701002319F00A9519F01FC023D01DC085
:1010D0001DD0012B91F0ED91FC91119700810E94A0
:1010E00033090D911C910F5F1F4F1C930E930ED06F
:1010F000015010400283138308C003E00E94F408EB
:10110000802F08D000E0009317018CCFFD010281F1
:101110001381089510E001E096CF8A9380E000915A
:101120001801002319F0025019F006C000E001C0B8
:1011300001E00E94F408802F0E94910901E00093D1
:101140001801082F89910895F801042E35D0302F09
:10115000330F330F330F231BE00FF11F60817181B9
:10116000402D27D0015010400CD0009510956023E1
:101170007123052F10E005D0062B712B008371839E
:101180000895422F0C94300FF801542F15D0602F82
:10119000E00FF11F00811181422F660F660F660F6D
:1011A000461B0E94360F202F452F03D00A9502239D
:1011B000089501E010E0E6CF43E089010C94360F7A
:1011C000002329F00A9529F0065029F006C000E016
:1011D000089502E0089506E0089504E0089500E00F
:1011E00000931A0201E0089511E010931A0200938F
:1011F0001902F8CFAD0120E0E9E1F2E031813323BB
:1012000031F02081D8012C9300E0018321E0022FEE
:10121000DA0108952AB128642AB900230AB111F02D
:10122000006901C00F760AB9112329F00AB10862DA
:101230000AB9C09A0895559808958A019B0144E01F
:101240000E94760FA801B90100E012E12AE730E020
:101250000E94860F0A9509B910E000E0DBDFB89A1A
:10126000C09801E008950CB9FCCF2CB1F80120839F
:10127000F8CF0CD0E091A800F091A90018D01895F3
:1012800005D0E091A600F091A700F8CF8A93FA93D9
:10129000EA933A922A921A920A927A936A935A930A
:1012A0004A933A932A931A930A938FB7089509950C
:1012B0008FBF09911991299139914991599169915A
:1012C00079910990199029903990E991F991899132
:1012D0000895C098189520E030E044E254EF60E0B3
:1012E00070E00E94560F40E25EE40E94860FEBE140
:1012F000F2E00083118300E005BD13D001E0089502
:1013000000E004BDEBE1F2E000811181012B29F046
:1013100009B7006809BF008103BD05B5056005BDBB
:10132000089505B50A7F05BD09B70F7709BF08B74E
:10133000006808BF08958A93FA93EA933A922A9232
:101340001A920A927A936A935A934A933A932A93F7
:101350001A930A938FB7E091AA00F091AB00099518
:101360008FBF0991199129913991499159916991A9
:1013700079910990199029903990E991F991899181
:1013800018950E94BD1100E00EBD0FBD08E00EBD16
:1013900009B7006109BFBDD004E610E03CD2018F5F
:1013A000128F0789087F0360078B00E4008F16B94E
:1013B00005E806B900E407B980E492E004E6FC0120
:1013C000048F158F05E6068F178FA2E6B2E005E0C1
:1013D0009CD0068317830BE08ED0048715870DE021
:1013E00093D00087118701E00287138708E0068702
:1013F000178700E18AD0048F158F01E186D0028F14
:10140000138F02E182D0068F178F03E17ED006A7EB
:1014100017A705E170D002AB13AB07E110E06BD06A
:1014200004AB15AB0BE16BD0028B138B09E167D0DA
:10143000008B118B0FE163D00283138304E164D02E
:1014400000AB11ABB69903C0048D158D02C0028D9F
:10145000138D00A311A3DDD1FC0122893389F8018A
:1014600026833783D6D1FC0120893189F801248372
:101470003583FD0100A9CCD0FD0106A517A5FC010F
:10148000008F118FFD0104A915A9FC01068B178B94
:1014900064D12ED0FC01008311835FD150E041E084
:1014A0002AE08DD151E01ED088D100E0FD01048BEF
:1014B000058BFC01028B038B008B018B79D00E7F97
:1014C000068310D0E3D1002311F0979A01C09798BA
:1014D00068D011F0959A01C09598AA9A52D0E4E08C
:1014E0000C94C91141E029E030E00AE312E00895CC
:1014F00006E00C9462020E94E101FD01089510E0F3
:101500000E94E101FC01089510E00E94B30110E087
:10151000F4CF0EB5087F0EBD09B70F7E09BF089541
:10152000BA93AA93959AA7EBB0E0ABD0028113814E
:10153000FD01038F148FACD039F4FD01038D148DA0
:10154000000F111F038F148F00E00DBD0CBDFD01B6
:10155000018D128D1BBD0ABD0091CE0007701EB516
:10156000102B1EBD09B7006109BF51E041E020E02A
:1015700091D123D1FD01068102600683A991B99121
:10158000089500E048D1038F048FC3DF0AD011F41F
:10159000DCD0959850E041E020E009D00D7F068333
:1015A000089541E02AE0A0DF71D1002308950CD115
:1015B000E7EBF0E006810895053020E0120718F40B
:1015C00001E010E006C0053F23E0120710F004EF31
:1015D00013E05AD040E050E060E87FEB0E946510D5
:1015E00040E050EC6CE774E40E943C110CD00E9487
:1015F000C31009D00E9465100E94131010E043D15F
:101600000487158705C040E050E068E472E408955F
:1016100038D020A131A1283710E03040F80119F46A
:10162000ED5AFD4F02C0E954FD4F04912CD10687BD
:10163000178708950E94B911C8012AD011F4880FA4
:10164000991F0091CF0010E01FD02801390119D057
:10165000428153818C010E94280F4CE389D114D020
:10166000A201B3010E94C310A801B90100E014E275
:1016700024EF3AE40E943C110E941310E8E00C941D
:10168000C511E2E6F2E0089520E030E00C9411107C
:1016900029DFFCD0013008950E94BD1180E492E062
:1016A000ADEDB0E00091E4000A9589F1055019F123
:1016B0000A95F1F50091E300102F1A951093E300BD
:1016C000002349F007E015DF2D913C91200F311FD9
:1016D0003C932E930EC000E40093E3000D911C9107
:1016E00011970E949F0DFC010283138300E00D936C
:1016F0000C9306E01BC0FCDEFD01228133811DD06E
:1017000022833383FC012083318301E00FC025D085
:1017100001E0EFDEFD01248135810FD02483358384
:101720008901FC012287338747DF07E00093E4004B
:1017300007B1087F07B909D0D2CE021B130B44E0D2
:101740000E943C0F200F311F08950FEC17E001504D
:101750001040E9F700C00000089501E00E94620215
:10176000FC01028713870895B69B02C008E701C0F9
:1017700000EA10E086DF00A311A350E0B69951E023
:1017800041E026E087D019D0839904C051E041E0C0
:1017900029E012C050E041E029E013D0B79951E0B0
:1017A00041E025E00ED0849951E041E027E009D0E6
:1017B000989951E041E028E06DD00C94A40894DEA3
:1017C000FCCF02D050E0089565D0F7CFAA9906C0AB
:1017D0001CD011F0929A0BC0929809C01CD000A1A5
:1017E000002311F0929A01C0929800E000A313D058
:1017F000078D013019F409D031F003C0068101FFD3
:1018000002C0AD9A0895AD98089503D0F8010185FE
:10181000CCCE0C94240DE7EBF0E008958A93B29BB4
:1018200002C001E001C000E0802F502F41E02BE01A
:10183000BEDE01FD02C032D024C080FB96F40091D0
:10184000D900002371F424D021D0002311F451E0F9
:1018500001C050E01DD0B1DFAA9A20D001E0009372
:10186000D7008093D900D7DF01A1039501A30A30E7
:1018700040F000E001A307D006891789012B09F485
:10188000AA9889910895E0E4F2E008950C94C408C0
:1018900041E02AE030E004E312E00895E2E6F2E0FD
:1018A00004A915A9E0E4F2E0068B178B00E0009391
:1018B000D80008950E94B911A7EBB0E041E028E0FC
:1018C000E9DFE4DF013021F0FD01068101FF0BC0FB
:1018D000D8DE06A517A5D7DF008F118F00E0FD0128
:1018E000058F068F44C0258D368D89010F5F1F4FF0
:1018F000058F168F28353240D0F100E0058F068F16
:10190000C2DF008D118D012B91F501E00093D6000F
:101910000091DA00002329F401E00093DA00969A9E
:1019200004C000E00093DA0096985091DA0041E09C
:1019300023E045DFFD014788508C618C728CA1DE6D
:1019400002A913A9048B158B40A151A10AE010E054
:101950000E94280F44E60CD010E06CDEFD01018FE0
:10196000128FDEDDFD01478A508E618E728E86CE2B
:1019700050E00C94420FBA93AA938A93FA93EA9395
:101980003A922A921A920A927A936A935A934A93B3
:101990003A932A931A930A938FB700917602109183
:1019A0007702A7EBB0E0202F212B31F10F3F1F4F23
:1019B000B1F039D05C97012B91F400916402109141
:1019C00065025B960D931C935C9762DEC9F42BD085
:1019D0001197000F111F0D931C935C9711C0C198B4
:1019E00000C000C000C000C0C19A1DD0015010400E
:1019F0001C930E935B9704C000E00093D600C1DDFA
:101A00008FBF099119912991399149915991699102
:101A100079910990199029903990E991F9918991DA
:101A2000A991B99118955B960D911C91089503E0C9
:101A300003BF09B7016009BF03E802BF08954FB7AC
:101A4000F89470D04FBF08952FB7F8940DE112E0CD
:101A50002FBF0895FA93EA930A927A936A935A935E
:101A60004A933A932A931A930A930FB65BD055D0B0
:101A7000018B128B238B348B448555856685778546
:101A80000417150726073707C8F10C5947D00487F4
:101A900015872687378700854CD0008700890395F6
:101AA000008B053058F100E0008B018542D00187A2
:101AB0000185002319F502853CD00287008103953A
:101AC00000830C33D8F000E0008304811581268167
:101AD000378123D00483158326833783038529D058
:101AE00003870181039501830C3340F000E00183FB
:101AF000028113810F5F1F4F0283138303E802BF2C
:101B00000FBE099119912991399149915991699182
:101B100079910990E991F99118950F5F1F4F2F4F17
:101B20003F4F0895EDE1F2E001891289238934895C
:101B30000895002311F401E0089500E008950E9443
:101B4000BB11B80120E04EE10CE113E0F801FC9676
:101B500060D020F06015710568F009C0F8010590AB
:101B600014906015710550F00616170618F40CED68
:101B700015E04CC000E010E049C0432FE42FF0E036
:101B800030E0E21BF040329784F0022E1124040E64
:101B9000131E15940794302D52E0359FF801E00D87
:101BA000F11D37D050F3232FE9CF32E0239FF80106
:101BB000E00DF11D459054906415750518F0422F05
:101BC0002DD024C0439F000D111DF80125913491A3
:101BD000421A530A23D0C801042D0529B1F0621B13
:101BE000730B8B0120E030E042E360E070E00E9484
:101BF000560FA20156954795040F151F261F361F35
:101C0000A2010E94A90F801B910B8C01E6E00C94AD
:101C1000C7110590149006161706089550E002E3C8
:101C200010E00C94280F0D01D80100E0ADD0E40FB6
:101C3000F51F7197C8F4EEE3F2E060817181261B15
:101C4000370B142F152B89F0B901660F771FEEE3C0
:101C5000F2E0E60FF71F63816D9362816D932F5F52
:101C60003F4F41505040EDCF01E0D00108950E9418
:101C7000BD11F801C90100E00197DC01A40FB51FF7
:101C8000919748F5A0E6B2E02D913C91821B930B11
:101C9000662319F06A9579F01FC0142F152BE1F017
:101CA0001ED011962C91119721932D91219301967D
:101CB00041505040F2CF142F152B71F010D03191BC
:101CC0000D933C93119721916D91622B6E93019628
:101CD00041505040F0CF01E0E4E00C94C9119C0168
:101CE000220F331FA2E6B2E0A20FB31F08950E9495
:101CF000B6113801A42FAA2443E00A2F7BD0C801D3
:101D00000196E8E3F2E03ED0EA0FF51FB19778F5CF
:101D100074D0662351F06A95E1F02AC048E0282D7E
:101D200030E00AE312E05BD00197082F092BB1F7EE
:101D30000FEF600E701EA77028E02A1B68D018C035
:101D4000F30151913F0148E017D001E0400E5A1CC9
:101D5000019708E312E0040D151D82309A0580F703
:101D6000A77031F0F30151914A2F06D001C0A3941E
:101D70000A2DEBE00C94C211282D30E00E5F1F4FAE
:101D80000C94A4080081118121503040F90108957C
:101D90000E94B6113801842FAA2443E0082F2AD0CC
:101DA000D8011196E2E3F2E0EDDFE80FF51FB197FD
:101DB000A0F423D007C048E0282D30E004E312E06F
:101DC0000ED011970A2F0B2BB1F70FEF600E701E7C
:101DD000877028E0281B1BD001C0A394C9CF040D35
:101DE000151D0E94C40811E0410E5A1CF301019315
:101DF0003F010895152F0C94360F201B310B43E043
:101E000089010E94360F28012770822E0895F30160
:101E1000008110E0422F0E94300F10E0422F0E94FC
:101E20003C0F0083089500008895FECF01EE0DBFA2
:101E300002E00EBFC2EED3E00E94D211002311F0E7
:101E40000E94F1110E946C020E94130F0C94130F58
:101E5000149F102D059F100D049F002D110D089546
:101E60004A951AF0000F111FFBCF08954A951AF0FA
:101E700016950795FBCF08954A951AF01595079585
:101E8000FBCF089500241124EFE0001F111F001C58
:101E9000111C0416150610F0041A150AEA95AAF783
:101EA000001F111FA0010095109508952224349F52
:101EB000302D259F300D169F300D079F300D249F2C
:101EC000202D310D159F200D311D069F200D311D38
:101ED000149F102D210D321D059F100D211D321D47
:101EE000049F002D110D221D321D08954A952AF0E0
:101EF000000F111F221F331FF9CF08954A952AF0B2
:101F00003695279517950795F9CF08950024112444
:101F10001001E0E2EA9592F0001F111F221F331F0B
:101F2000001C111C221C331C04161506260637063D
:101F300088F3041A150A260A370AECCF001F111F6E
:101F4000221F331FA001B1010095109520953095F7
:101F50000895FF27772312F4F16015D0332312F48C
:101F6000F09509D00E94860FF69508F404D0F695F6
:101F700008F409C0089530952095109501951F4FDC
:101F80002F4F3F4F089570956095509541955F4F45
:101F90006F4F7F4F0895FF27112477FB660F771F40
:101FA000089409F4771F679517F8EE27002437FB8C
:101FB000220F331F089409F4331F279507F808955B
:101FC00027FD0EC0EE0F001F111F221F3A95323061
:101FD000B8F7332319F427FD31E002C027FF30E0C2
:101FE000E03821F400FF08940EF488940F4F1F4F3F
:101FF0002F4F3F4F323038F4332319F427FD31E0AF
:1020000002C027FF30E03F3F29F0220F000C379538
:1020100027950895A4C0E02F012F122F232F3EE90A
:10202000D6CF0024F8CFC1DF432F4F5748F04F31B0
:1020300048F007FC8EC03FE72FEF1FEF0FEF08952A
:10204000332789C0322F212F102F0E2F4F5141954A
:102050000E947E0F07FE08950C94BB0FF901EE0F4E
:10206000FF1F37FBFF3F31F0EF2BE12BE02B889474
:10207000B8940895E02BE12B21F008949894B8943B
:1020800008959894889438940895FB01EE0FFF1FEB
:1020900077FBFF3F31F0EF2BE52BE42B8894B894CE
:1020A0000895E42BE52B69F3E8CFEFDF68F021F426
:1020B0003723262F8A010895372FFBCFE6DF20F044
:1020C0000BF008957327EAF74EC0C8DFE8F3B3F3C7
:1020D00061F3DBDFC8F383F3A1F35DDF4017510742
:1020E0006207730731F4011411F10024E894889415
:1020F0002BC078F0332E372F732D322E262F632DE1
:10210000312E152F532D302E042F432D302C012C22
:10211000132C371739F0669557954795F795E0409A
:102120007395F7CFE7FBEE0FE0E010246AF0EF0FB6
:10213000041F151F261F60F4279517950795E7952F
:1021400008F46894339543CFEF0B040B150B260B63
:102150003ECF302D307822271127002708953FE702
:10216000302920E8F9CF3FEF2FEFF6CF8EDFD8F3FD
:10217000D1F370783727089588DFA8F3A3F3F9CF58
:102180003078372796CF6ADF70F383F3A9F37DDFCA
:1021900050F3B3F3A9F3FFDE0124E8943F57E04086
:1021A000370FEF1F12F0D9F603C03A3E90F2689451
:1021B000E0E00A92AA933A93AA27332422243327F1
:1021C000049FF001059FF00D712D731F149FF00DFA
:1021D000711D221C069F700D211C331C159F700D54
:1021E000211C331E249F700D211C331E169F200CB2
:1021F000311CAA1F259F200C311CA31F269F300CC9
:10220000A11D39915EF43395A6953794279477955F
:10221000F795E79533953130BCF316C0AA2322F029
:10222000332351F4339510C0339571F4A99109907B
:1022300096CFA7FD09C03A95EE0FFF1F771F221C0E
:10224000331CAA1F3230A8F7E894FE2B09F06894DB
:102250002A2F8101E72FA9910990C2CE16DF10F035
:102260000BF087CF80CF11DFE9F3E0F3032E0726D1
:1022700070CF032E072673CFF1DEA0F37BF399F323
:1022800004DF80F39BF3A9F386DE012427FD06C05B
:10229000000F111F221F3150E040F8CF67FD06C02C
:1022A000440F551F661F7150F040F8CFE894371B5C
:1022B000EF0B3158EF4F2AF0EE23E9F63F3FD9F20A
:1022C00003C03A3EA8F26894E0E0F0E011241394D1
:1022D00040175107620738F0315008F46894000F36
:1022E000111F221FEE1F041B150B260BEF0B000FF7
:1022F000111F221FEE1F0A9279E17A95AAF00417A6
:1023000015072607EF0730F0041B150B260BEF0B04
:10231000089401C08894111C221C331C001C000F5F
:10232000111F221FEE1FE9CFF0F9E894E22BE12BF9
:10233000E02B09F068940694379427941794E79556
:1023400008F468947395B9F30990332311F0F0FF02
:1023500009C0369427941794E79508F46894339548
:102360003130BCF3012D122D232D3ACEAA929A9230
:102370008A927A926A925A924A92BA93AA939A93BA
:102380008A930895AA84998488847F806E805D8072
:102390004C80BB81AA8199818881F0E0EC0FFD1F00
:1023A000EF01089501E008950D01D80105C0F9017C
:1023B00060816D932F5F3F4FBA0141505040672BB2
:1023C000B1F7D001089520E006D0E9F708952591EE
:1023D00002D0E9F708952D9301501040202F212BB2
:1023E00008958AE593E0FC0105911491FC01329671
:1023F000A591B491FC01349625913491422F432B41
:1024000019F0F901E4DF01C0DEDF069613E086363D
:10241000910748F308955258482032372E30312E14
:10242000323031372031353A31333A3132001166AA
:102430000704F60603B70606990601DB0505200624
:102440000253060000000000000000000000000031
:10245000000000000000000000000000000000007C
:10246000000000000000000002000000005C025EAE
:102470000200000068026E026A023A02340262023E
:102480004002000000000000C80000000000000042
:0B24900000B700000000000000400743
:00000001FF
:00000001FF
